:020000040800F2
:10000000300500209D010008671500084D1200080A
:1000100065150008A9020008F31800080000000098
:100020000000000000000000000000006B15000848
:10003000AB02000800000000691500086D150008FB
:10004000B7010008B7010008B7010008B7010008B0
:10005000B7010008B7010008AD020008B7010008A9
:10006000B7010008B7010008B7010008B701000890
:10007000B7010008B7010008B7010008B701000880
:10008000B7010008B7010008B7010008B701000870
:10009000B7010008B7010008B7010008B701000860
:1000A000B7010008B7010008B7010008B701000850
:1000B000B7010008B7010008B7010008B701000840
:1000C000B7010008B7010008B7010008B701000830
:1000D000B7010008B7010008B7010008B701000820
:1000E000B3020008B7010008B7010008B701000813
:1000F000B7010008B7010008B7010008B701000800
:10010000B7010008B7010008B7010008B7010008EF
:10011000B7010008B7010008B7010008B7010008DF
:10012000B7010008B7010008B7010008B7010008CF
:10013000B7010008B7010008B7010008B7010008BF
:10014000B7010008B7010008B7010008B7010008AF
:10015000B7010008B7010008B7010008B70100089F
:10016000B7010008B7010008B7010008B70100088F
:10017000B7010008B7010008B7010008000000003F
:10018000B7010008B7010008DFF80CD000F07AF8DA
:100190000048004713190008300500200648804732
:1001A00006480047FEE7FEE7FEE7FEE7FEE7FEE75C
:1001B000FEE7FEE7FEE7FEE7ED150008890100080F
:1001C0002DE9F05F0546002092469B46884606468C
:1001D000814640241BE0284641464746224600F01F
:1001E00041F853465A46C01A914110D31146184659
:1001F000224600F028F82D1A67EB01084F462246E8
:100200000120002100F01FF817EB00094E41201ECD
:10021000A4F10104DFDC484631462A464346BDE8E6
:10022000F09FD2B201E000F8012B491EFBD27047CB
:100230000022F6E710B513460A4604461946FFF7B2
:10024000F0FF204610BD202A04DB203A00FA02F11C
:10025000002070479140C2F1200320FA03F31943B4
:1002600090407047202A04DB203A21FA02F0002156
:10027000704721FA02F3D040C2F1200291400843B6
:1002800019467047064C074D06E0E06840F0010350
:1002900094E8070098471034AC42F6D3FFF778FF94
:1002A0004019000860190008FEE77047012000F0BF
:1002B00011B810B54FF4806000F00CF84FF4805086
:1002C00000F008F8BDE810404FF4804000F002B89C
:1002D0007047000010B504490A68024202D0086065
:1002E000FFF7F6FF10BD0000143C01402DE9F84F68
:1002F0000022DFF81492DFF814A2DFF814B24FF0F6
:10030000010E03274FF00F080EFA02FC0B6803EAF8
:100310000C0363457DD10C7904F00304012C01D05A
:10032000022C14D18568540007FA04F6B543CE6850
:1003300006FA04F42C438460446824EA0C0C0C791B
:10034000C4F30014944044EA0C0CC0F804C0D1F883
:1003500004C037EA0C0C0CD0C4684FEA420C07FA10
:100360000CF5AC438D6805FA0CFC4CEA040CC0F8A3
:100370000CC091F804C00CF0030CBCF1020F12D1B8
:100380004FEAD20C00EB8C04256A4FEA427C4FEA1C
:10039000DC6C08FA0CF6B5430E6906FA0CFC4CEA64
:1003A000050CC4F820C004684FEA420C07FA0CF5AB
:1003B000AC430D7905F0030505FA0CFC4CEA040C7E
:1003C000C0F800C0D1F804C01CF4403F7DD0D9F87B
:1003D00000C04CF4804CC9F800C0D9F800C00CF43F
:1003E000804CCDF800C022F0030C0CF1804505F5DF
:1003F0009835D5F808C89407240F08FA04F62CEAB3
:100400000606A0F1804CBCF5003C64D0A0F1804C05
:1004100000E05AE0BCF5013C60D0A0F1804CBCF596
:10042000023C5ED0A0F1804CBCF5033C5CD0A0F156
:10043000804CBCF5043C5AD0A0F1804CBCF5053C86
:1004400058D0A0F1804CBCF5063C56D0A0F1804CB1
:10045000BCF5073C54D04FF0080C0CFA04FC4CEAF5
:10046000060CC5F808C8DAF800C02CEA030C4C6882
:1004700014F4803F01D04CEA030CCAF800C0254CAC
:10048000D4F800C02CEA030C4D6815F4003F01D0ED
:100490004CEA030CC4F800C0DBF800C02CEA030CE3
:1004A0004C6814F4801F01D04CEA030CCBF800C058
:1004B000194CD4F800C02CEA030C4D6815F4001F49
:1004C00001D04CEA030CC4F800C0521C102AFFF4FF
:1004D0001BAFBDE8F88F4FF0000CBEE74FF0010CEA
:1004E000BBE74FF0020CB8E74FF0030CB5E74FF055
:1004F000040CB2E74FF0050CAFE74FF0060CACE789
:100500004FF0070CA9E7000044380240003C0140CE
:10051000083C0140043C01400C3C0140014880681B
:1005200070470000000000200248816802781144F2
:10053000816070470000002010B50B48016841F44D
:1005400000710160016841F480610160016841F45B
:1005500080710160032000F085F8002000F006F8AB
:1005600000F026F8002010BD003C024070B50446A3
:100570000D4D4FF47A712878B1FBF0F00B49096802
:10058000B1FBF0F000F0B8FB08B1012070BD102CF9
:1005900007D200222146501E00F030F86C60002087
:1005A00070BD012070BD0000000000200C00002084
:1005B0000A4808B5016841F480410160006800F410
:1005C000804000900548001F016841F080510160A3
:1005D000006800F08050009008BD000044380240E0
:1005E00000280ADB00F01F01012202FA01F1400994
:1005F000800000F1E020C0F80011704710B4184BE3
:100600001B68C3F30223C3F1070CBCF1040F01D92B
:100610004FF0040C1C1D072C01D2002300E0DB1E50
:10062000012404FA0CFCACF1010C0CEA0101994024
:1006300004FA03F35B1E1A401143002806DB00F1A5
:10064000E020090180F8001410BC704700F00F0092
:1006500000F1E020090180F8141D10BC7047000073
:100660000CED00E000F00700064A11684FF6FF03AA
:10067000194041EA002040F0FD7040F080601060B9
:10068000704700000CED00E02DE9F04704460D46F0
:10069000002C13D0DFF85491D9F80000EFB200F02D
:1006A0000700A8420DD289F80070D9F8000000F0C8
:1006B0000700A84205D00120BDE8F0870120BDE871
:1006C000F08720684A4E10F0020F14D010F0040F8B
:1006D00003D0306840F4E0503060207810F0080F0C
:1006E00003D0306840F4604030603068A16820F08A
:1006F000F00008433060207810F0010F3ED06068B1
:100700003C49012808D002280DD003280BD00968E5
:1007100011F0020F28D00AE0096811F4003F06D159
:100720000120BDE8F087096811F0007F19D0316819
:1007300021F0030108433060FFF7F0FE8046306887
:10074000616800F00C00B0EB810F17D041F2883ADD
:10075000FFF7E4FEA0EB0800504508D90320BDE8F0
:10076000F0870120BDE8F0870120BDE8F087306800
:10077000616800F00C00B0EB810FE9D1D9F80000FE
:1007800000F00700A8420AD989F80070D9F80000E3
:1007900000F00700A84202D00120BDE8F0872078D1
:1007A00010F0040F05D03068E16820F4E0500843F1
:1007B0003060207810F0080F06D03068216920F4EE
:1007C000604040EAC100306000F01CF831680A4A1D
:1007D000C1F30311515CC84008490860084800682B
:1007E000FFF7C4FE0020BDE8F0870000003C024097
:1007F0000838024000380240301900080C00002080
:100800000400002010B51748006810F00C011648CD
:1008100016D0164B042912D0082911D1144C216886
:1008200001F03F02216811F4800F0AD02068C0F364
:100830008810A0FB03010023FFF7C2FC09E0184663
:1008400010BD21680023C1F38811A1FB0001FFF74F
:10085000B7FC2168C1F30141491C4900B0FBF1F02C
:1008600010BD0000083802400024F40040787D01EB
:10087000043802402DE9F84F0446002C12D02078AD
:10088000FB4E10F0010FA6F1040563D0301D016886
:1008900001F00C0104290CD0006800F00C000828BD
:1008A00003D010E00120BDE8F88F306810F4800F0D
:1008B00009D0286810F4003F4CD06068002849D166
:1008C0000120BDE8F88F6068B0F5803F14D0B0F526
:1008D000A02F16D0286820F480302860286820F4E3
:1008E00080202860606810B3FFF718FE074628686C
:1008F00010F4003F0ED02DE0286840F480302860CE
:10090000F0E7286840F480202860286840F48030B0
:100910002860E7E7FFF702FEC01B642802D9032026
:10092000BDE8F88F286810F4003FF3D012E0FFF71D
:10093000F5FD0746286810F4003F0BD0FFF7EEFDE9
:10094000C01B642802D90320BDE8F88F286810F482
:10095000003FF3D12078C74F10F0020F4FF000098D
:1009600057D0C548016811F00C0F14D0006800F092
:100970000C00082803D1306810F4800F0BD0E06819
:1009800080B301203860FFF7C9FD8046286810F069
:10099000020F12D01EE0286810F0020F05D0E068A8
:1009A000012802D00120BDE8F88F2868216920F0D5
:1009B000F80040EAC10028602BE0FFF7AFFDA0EB94
:1009C0000800022802D90320BDE8F88F286810F03B
:1009D000020FF2D02868216920F0F80040EAC10037
:1009E000286016E0FFE7C7F80090FFF797FD804604
:1009F000286810F0020F0CD0FFF790FDA0EB080064
:100A0000022802D90320BDE8F88F286810F0020FF1
:100A1000F2D1207810F0080F35D09848DFF860A2A6
:100A20006169C1B101210160FFF778FD8046DAF804
:100A3000000010F0020F26D1FFF770FDA0EB0800B8
:100A4000022802D90320BDE8F88FDAF8000010F080
:100A5000020FF1D017E0C0F80090FFF75FFD80466D
:100A6000DAF8000010F0020F0DD0FFF757FDA0EBF1
:100A70000800022802D90320BDE8F88FDAF8000048
:100A800010F0020FF1D1207810F0040F71D04FF068
:100A900000087C48006810F0805F0AD1794801683E
:100AA00041F080510160006800F0805000904FF0EC
:100AB0000108DFF8D4B1DBF8000010F4807F1BD10F
:100AC000DBF8000040F48070CBF80000FFF726FD53
:100AD0008246DBF8000010F4807F0DD1FFF71EFD89
:100AE000A0EB0A00022802D90320BDE8F88FDBF84A
:100AF000000010F4807FF1D0A068DFF890B10128E9
:100B000018D005281DD0DBF8000020F00100CBF83C
:100B10000000DBF8000020F00400CBF80000A06823
:100B200040B3FFF7FBFC8246DBF8000010F0020F39
:100B300014D03EE0DBF8000040F00100CBF80000EC
:100B4000EDE7DBF8000040F00400CBF80000DBF834
:100B5000000040F00100CBF80000E0E7FFF7DEFC0A
:100B6000A0EB0A0141F28830814204D90320BDE89C
:100B7000F88F26E005E0DBF8000010F0020FEDD062
:100B800017E0FFF7CBFC8246DBF8000010F0020F05
:100B90000FD0FFF7C3FCA0EB0A0141F2883081427D
:100BA00002D90320BDE8F88FDBF8000010F0020F37
:100BB000EFD1B8F1010F04D13248016821F0805122
:100BC0000160A069F0B32C4909684FF0FF3801F0CB
:100BD0000C01082966D0022810D0C7F86090FFF7F2
:100BE0009DFC0446286810F0007F2BD0FFF796FC90
:100BF000001B022851D90320BDE8F88FC7F8609088
:100C0000FFF78CFC8146286810F0007F0CD0FFF7BE
:100C100085FCA0EB0900022802D90320BDE8F88F6B
:100C2000286810F0007FF2D1216AE069A26A0843C7
:100C3000616A08EB5202890141EA0241084394F8D3
:100C40002C1000E055E040EA016030600120386679
:100C5000FFF764FC0446286810F0007F49D1FFF7D5
:100C60005DFC001B022813D90320BDE8F88F0000AB
:100C7000043802400000474208380240800E4742D4
:100C80007438024040380240007000407038024022
:100C9000286810F0007FE2D02BE0286810F0007F79
:100CA000A4D126E0012822D03068E26900F4800156
:100CB00091421AD1226A00F03F01914215D147F6C4
:100CC000C071626A0140B1EB821F0ED1A26A00F4CA
:100CD000403108EB5202B1EB024F06D194F82C10D0
:100CE00000F07060B0EB016F03D00120BDE7012080
:100CF000BBE70020B9E70000401EB0F1807F01D3C0
:100D0000012070474FF0E0214861044AF020107044
:100D100000208861072008610020704723ED00E073
:100D200030B490F83C20012A44D0012480F83C40A3
:100D3000022280F83D200268D2F804C093682CF0AB
:100D4000700C0D6845EA0C0CC2F804C00268A2F1F0
:100D5000804CBCF5803C20D0B2F1804F1DD0A2F178
:100D6000804CBCF5806C18D0A2F1804CBCF5006CB6
:100D700013D0A2F1804CBCF5406C0ED0A2F1804C97
:100D8000BCF5823C09D0A2F1804CBCF5A03C04D05B
:100D9000A2F1804CBCF5C05C04D123F0800349680B
:100DA0001943916080F83D40002180F83C1030BC30
:100DB0000020704730BC0220704710B50446002C5C
:100DC00003D094F83D0010B107E0012010BD0020D1
:100DD00084F83C00204600F01FF8022084F83D0013
:100DE000211D206800F00AFC012084F8460084F8E8
:100DF0003E0084F83F0084F8400084F8410084F805
:100E0000420084F8430084F8440084F8450084F8E4
:100E10003D00002010BD000008B50068064988426A
:100E200008D10648016841F040010160006800F007
:100E30004000009008BD000000180040403802400B
:100E400070B50446002594F83C00012818D001260E
:100E500084F83C60022084F83D002068826822F01B
:100E6000770222F47F4282600868502839D00EDC75
:100E7000202854D006DC002851D0102811D14EE093
:100E8000022070BD30284AD040280AD13DE06028B9
:100E900031D070280DD0B0F5805F03D0B0F5005F81
:100EA00013D0012584F83D60002084F83C002846DA
:100EB00070BDCB684A688968206800F005FC20682E
:100EC000816841F077018160ECE7CB684A68896806
:100ED000206800F0F9FB2068816841F4804181605E
:100EE000E0E7CA684968206800F0DEFC502120680D
:100EF00000F0F5FBD6E7CA684968206800F0E7FC17
:100F00006021206800F0EBFBCCE7CA6849682068E4
:100F100000F0CAFC4021206800F0E1FBC2E7226833
:100F20000146104600F0DBFBBCE7000030B587B09F
:100F3000044614216846FFF77BF924682A4D0022F5
:100F40002A4902232A48AC420DD10C6844F002041D
:100F50000C60096801F00201059130210091CDE992
:100F60000132694610E0234DAC4213D1086840F0CD
:100F7000010008600868694600F0010005900C2037
:100F80000090CDE901321C48CDE90323FFF7AEF90B
:100F900007B030BD194DAC4211D1086840F01000C7
:100FA00008600868694600F0100005906020009015
:100FB000CDE901320320CDE903201148E6E7114DC8
:100FC000AC42E5D10C6844F002040C60096801F001
:100FD00002010591E9000091CDE901320921CDE935
:100FE00003216946D2E70000000400403038024087
:100FF00000040240000C004000000240004001409C
:10100000001002400018004070B50446002594F816
:101010003C0001280FD0012084F83C006AB1042A6A
:101020000FD0082A11D00C2A13D00125002084F8F3
:101030003C00284670BD022070BD206800F058FBBF
:10104000F4E7206800F08CFBF0E7206800F0C4FBB8
:10105000ECE7206800F0FCFBE8E710B50446002C44
:1010600003D094F83D0010B107E0012010BD00202E
:1010700084F83C00204600F01EF8022084F83D0071
:10108000211D206800F0BAFA012084F8460084F897
:101090003E0084F83F0084F8400084F8410084F862
:1010A000420084F8430084F8440084F8450084F842
:1010B0003D00002010BD704770B504460D46002667
:1010C00094F83C0001280FD0012084F83C006AB15C
:1010D000042A1FD0082A32D00C2A44D0012600202E
:1010E00084F83C00304670BD022070BD294620685F
:1010F00000F0FEFA2068816941F0080181612068F2
:10110000816921F004018161206881692A691143A4
:101110008161E4E72946206800F022FB20688169AC
:1011200041F4006181612068816921F480618161FD
:10113000206881692A6941EA02218161CFE7294655
:10114000206800F049FB2068C16941F00801C161D5
:101150002068C16921F00401C1612068C1692A6960
:101160001143C161BBE72946206800F071FB20688C
:10117000C16941F40061C1612068C16921F48061E5
:10118000C1612068C1692A6941EA0221C161A6E7FB
:1011900010B50446002C03D094F83D0010B107E0D0
:1011A000012010BD002084F83C00204600F01EF80D
:1011B000022084F83D00211D206800F01FFA012064
:1011C00084F8460084F83E0084F83F0084F840002C
:1011D00084F8410084F8420084F8430084F8440015
:1011E00084F8450084F83D00002010BD08B5134A7E
:1011F00001681348914207D1016841F00201016082
:10120000006800F0020009E00E4A914208D101682E
:1012100041F008010160006800F00800009008BD7E
:1012200009488142FBD10648001D016841F4803124
:101230000160006800F48030F0E700000004004026
:1012400040380240000C004000400140FEE7000032
:1012500070B586B014216846FEF7EAFF39480024CD
:10126000016841F010010160016801F01001059171
:10127000016841F001010160016801F0010105917F
:10128000016841F002010160016801F0020105916D
:10129000016841F008010160016801F00801059151
:1012A000016841F04001016000684FF4041500F04E
:1012B0004000059044F20100CDE90005224E694648
:1012C00002943046FFF712F848F20200CDE900041C
:1012D000694630460294FFF709F8B014CDE90005DD
:1012E0001A4E694602943046FFF700F84FF400505A
:1012F000CDE90004694630460294FEF7F7FF701509
:10130000CDE90004124E694630460294FEF7EEFF26
:101310003015CDE90005694602943046FEF7E6FF38
:10132000002211460620FFF769F90620FFF758F959
:10133000002211462820FFF761F92820FFF750F915
:1013400006B070BD3038024000100240000C024070
:101350000018024010B58CB000240794089409943A
:101360001C2168460A94FEF763FF1E481C49016071
:101370001021C0E9011440F2E731C0E9031484618F
:10138000FFF71BFD08B172B6FEE74FF480500790DF
:1013900007A91448FFF754FD08B172B6FEE71148DB
:1013A000FFF7F6FE08B172B6FEE76020CDE9000453
:1013B0000294002269460B480494FFF77DFE08B1B1
:1013C00072B6FEE7042269460648FFF775FE08B1CB
:1013D00072B6FEE70348FFF7A9FD0CB010BD000090
:1013E00000180040E800002010B58AB000240794DF
:1013F0001C2168460894FEF71BFF1A481849016033
:101400001321C0E9011440F2E731C0E903148461FB
:10141000FFF7BEFE08B172B6FEE7079407A91148B0
:101420000894FFF77DFC08B172B6FEE76020CDE9B5
:1014300000040294002269460A480494FFF73CFE27
:1014400008B172B6FEE7042269460648FFF734FE8B
:1014500008B172B6FEE70348FFF768FD0AB010BD99
:10146000000400401000002010B58AB0002407944A
:101470001C2168460894FEF7DBFE1E481C490160EB
:101480001021C0E9011440F2E731C0E9031484617E
:10149000FFF77EFE08B172B6FEE71648FFF7DDFDE6
:1014A00008B172B6FEE7079407A912480894FFF73F
:1014B00037FC08B172B6FEE76020CDE90004029463
:1014C000082269460B480494FFF7F6FD08B172B68E
:1014D000FEE70C22694607480094FFF795FD08B126
:1014E00072B6FEE70348FFF721FD0AB010BD000009
:1014F000000C00405800002010B588B01C21684640
:10150000FEF796FE16481549002401601021C0E937
:10151000011440F2E731C0E903148461FFF738FE9B
:1015200008B172B6FEE76020CDE900040294002203
:1015300069460B480494FFF7BFFD08B172B6FEE799
:10154000042269460648FFF7B7FD08B172B6FEE708
:101550000348FFF7EBFC08B010BD0000004001405D
:10156000A0000020FEE7FEE770477047FEF7DCBFF3
:1015700010B592B030216846FEF75AFE14210CA82F
:10158000FEF756FE17480024016841F080510160C3
:10159000006800F0805011901348016841F48041C8
:1015A00001600068069400F48040119002200090D1
:1015B00001200390102004906846FFF75BF908B102
:1015C00072B6FEE70F20CDE90C040E940F940021B3
:1015D0000CA81094FFF758F8002801D072B6FEE767
:1015E00012B010BD4038024000700040024801684F
:1015F00041F470010160704788ED00E0F0B40268CA
:101600002C4B2D4C2D4D2E4EDFF8B8C098420AD0F1
:10161000B0F1804F07D0A04205D0A84203D0B0421D
:1016200001D0604503D122F070024F683A439842DE
:1016300028D0B0F1804F25D0A04223D0A84221D09D
:10164000B0421FD060451DD0A0F18044B4F5A03455
:1016500018D0A0F18044B4F5A23413D0A0F1804496
:10166000B4F5A4340ED0A0F18044B4F5C05409D030
:10167000A0F18044B4F5E05404D0A0F18044B4F566
:10168000005403D122F44072CC6822434C6922F00A
:101690008002224302608A68C2620A6882629842BB
:1016A00001D0604501D10969016301214161F0BCAC
:1016B00070470000000001400004004000080040A6
:1016C000000C004000040140D0F808C02CF47F4C0E
:1016D00042EA0322114341EA0C01816070478268AB
:1016E00022F07002114341F0070181607047000051
:1016F00070B4026A22F001020262036A4268D0F802
:1017000018C02CF0700C2CF0030C0C6844EA0C0C84
:1017100023F002038C6823430F4C104DA04201D0EC
:10172000A84205D123F00803CE68334323F0040315
:10173000A04201D0A84207D122F4807222F40072A4
:101740004C6922438C6922434260C0F818C0496842
:101750004163036270BC7047000001400004014017
:1017600070B4026A22F010020262036A4268D0F882
:1017700018C02CF4E04C2CF4407C0C684CEA042C8F
:1017800023F020038C6843EA0413114C114DA0424E
:1017900001D0A84206D123F08003CE6843EA0613A5
:1017A00023F04003A04201D0A84209D122F4806274
:1017B00022F400624C6942EA84028C6942EA8402A3
:1017C0004260C0F818C049688163036270BC70470A
:1017D000000001400004014070B4026A22F48072EB
:1017E0000262036A4268D0F81CC02CF0700C2CF026
:1017F000030C0C6844EA0C0C23F400738C6843EA75
:101800000423114C114DA04201D0A84206D123F46B
:101810000063CE6843EA062323F48063A04201D02C
:10182000A84209D122F4805222F400524C6942EAC3
:1018300004128C6942EA04124260C0F81CC0496874
:10184000C163036270BC70470000014000040140A6
:1018500010B4026A22F480520262D0F820C04268BA
:10186000C36923F4E04323F440730C6843EA042380
:101870002CF4005C8C684CEA043CA0F18044B4F584
:10188000803404D0A0F18044B4F5823404D122F431
:1018900080424C6942EA84124260C3614968016433
:1018A000C0F820C010BC7047036AD0F820C02CF0EC
:1018B000010CC0F820C0D0F818C02CF0F00C4CEA95
:1018C000021223F00A031943826101627047036A1E
:1018D00023F010030362D0F818C0036A2CF4704C94
:1018E0004CEA023223F0A00343EA01118261016253
:1018F0007047FEE702E008C8121F08C1002AFAD1AB
:1019000070477047002001E001C1121F002AFBD17F
:101910007047FEF711FEFFF72BFEFFF799FCFFF76C
:1019200019FDFFF761FDFFF79FFDFFF7E5FDFEE7FE
:10193000000000000000000001020304060708097F
:10194000601900080000002010000000F4180008D2
:10195000701900081000002020050000041900087C
:101960000100000010000000000000000024F4004E
:040000050800018965
:00000001FF
