:020000040800F2
:10000000780700209D010008532A0008C924000831
:10001000512A00083B0D0008CD3500080000000003
:10002000000000000000000000000000772F000822
:100030003D0D000800000000752F0008792F000812
:10004000B7010008B7010008B7010008B7010008B0
:10005000B7010008B70100083F0D0008B70100080C
:10006000B7010008B7010008B7010008B701000890
:10007000B7010008B7010008B7010008B701000880
:10008000B7010008B7010008B7010008B701000870
:10009000B7010008B7010008B7010008B701000860
:1000A000B7010008B7010008B7010008B701000850
:1000B00009300008B7010008B7010008B7010008BF
:1000C000B7010008B7010008B7010008B701000830
:1000D000B7010008B7010008B7010008C1350008E2
:1000E000450D0008B7010008B7010008B701000876
:1000F000B7010008B7010008B7010008B701000800
:10010000B7010008B7010008B7010008B7010008EF
:10011000B7010008B7010008B7010008B7010008DF
:10012000B7010008B7010008B7010008B7010008CF
:10013000B7010008B7010008B7010008B7010008BF
:10014000B7010008B7010008B7010008B7010008AF
:10015000B7010008B7010008B7010008B70100089F
:10016000B7010008B7010008B7010008B70100088F
:10017000B7010008B7010008B7010008000000003F
:10018000B7010008B7010008DFF80CD000F092FBBF
:1001900000480047894D000878070020064880473E
:1001A00006480047FEE7FEE7FEE7FEE7FEE7FEE75C
:1001B000FEE7FEE7FEE7FEE7ED2F000889010008F5
:1001C0002DE9F05F0546002092469B46884606468C
:1001D000814640241BE0284641464746224600F01F
:1001E000C5F953465A46C01A914110D311461846D4
:1001F000224600F0ACF92D1A67EB01084F46224663
:100200000120002100F0A3F917EB00094E41201E48
:10021000A4F10104DFDC484631462A464346BDE8E6
:10022000F09FD2B201E000F8012B491EFBD27047CB
:100230000022F6E710B513460A4604461946FFF7B2
:10024000F0FF204610BD421C10F8011B0029FBD115
:10025000801A70472DE9FE4F804681EA0300C00FE7
:100260000C46009021F0004123F00045B8EB02005D
:10027000A94105D24046214690461C460B460246FF
:1002800023F00040104347D0270DC7F30A00C3F303
:100290000A510290401A019040286BDAC3F3130010
:1002A00040F4801B0098924620B10023D2EB030A51
:1002B00063EB0B0B01985946C0F14002504600F029
:1002C00046F906460D4650465946019A00F05EF939
:1002D00010EB08006141002487EA115284EAE773B9
:1002E0001A4340D0009A62B3019A012A4FEA07529A
:1002F00015DC001B61EB02014FF0004202EA0752DD
:10030000CDE90042001C41F5801132462B4600F039
:10031000E3F903B0BDE8F08F40462146F9E7001B42
:1003200061EB0201001C41F5801300185B412018AD
:10033000A2F5001747EB030140EAD570B6196D41ED
:1003400011E06D084FEA360645EAC0754FEA0752DC
:10035000001B61EB0201001C41F5801149084FEAC6
:1003600030000019514132462B4603B0BDE8F04F32
:1003700000F0A3B90098012240000023D0EB020254
:1003800063EBE073009821464FEAE074B8EB00009D
:1003900061EB0401E9E783F000435BE781F0004192
:1003A00058E72DE9FE4F81EA030404F0004421F0F0
:1003B000004100944FF0000B23F0004350EA010489
:1003C0005ED052EA03045BD0C3F30A54C1F30A556A
:1003D0002C44A4F2F3340194A0FB0254C1F31301A2
:1003E00041F48011C3F3130343F4801301FB02446F
:1003F00000FB034E840A970A44EA815447EA835774
:10040000A4FB076802958D0A05FB07854FEA932C2C
:1004100004FB0C542705029D4FEA065847EA16379D
:10042000B5EB08056EEB070C870E920E47EA8117B5
:1004300042EA8312A7FB0201B6EB0B0164EB000456
:100440002B0D43EA0C335E1844EB1C50DA46514640
:10045000E7FB0201C5F313044FEA0B3343EA1453DD
:100460004FEA0432019C43EA0603A4F10C0402940F
:10047000009CCDE900B400F02FF903B0BDE8F08F87
:1004800000200146F9E770B5C1F30A5201F00045BA
:100490000024C1F3130140F2FF3341F480119A426A
:1004A00001DA002070BD40F233439A42A2F2334297
:1004B00003DC524200F05AF800E090402C43F1D0A7
:1004C000404270BD00F0004230F000400AD0C10D43
:1004D00001F56071C0F3160042EA0151C2084007FD
:1004E0001143704700200146704701F0004330B4CB
:1004F00021F0004150EA010206D00A0DA2F5607217
:10050000C1F31301002A02DC30BC00207047440F05
:1005100044EAC104C100E01830BC00EBC25000F056
:1005200095B830B50B46014600202022012409E091
:1005300021FA02F59D4205D303FA02F5491B04FA9C
:1005400002F52844151EA2F10102F1DC30BD202A7B
:1005500004DB203A00FA02F1002070479140C2F11A
:10056000200320FA03F3194390407047202A04DB4C
:10057000203A21FA02F00021704721FA02F3D0401C
:10058000C2F120029140084319467047202A06DB39
:10059000CB17203A41FA02F043EAE07306E041FA51
:1005A00002F3D040C2F1200291400843194670473F
:1005B0000FB4002300B589B00CA900910B996FF01E
:1005C0000042CB601E4B06931E4B07930423CDE9DC
:1005D00001321D4A089202466B46002000F016FACE
:1005E00009B05DF814FB70B586B006464FF0FF30D9
:1005F0000091CDE90101002015460C4604903246D9
:10060000694604A8FFF7D4FF02460498211825B1D3
:1006100008B1084600E020462860049800280DD064
:10062000002A02DD0098884208D0081B0094CDE91A
:1006300001043246694604A8FFF7BAFF06B070BD50
:10064000450C0008630C0008D90800080029A8BF61
:100650007047401C490008BF20F00100704710B4EB
:10066000B0FA80FC00FA0CF050EA010404BF10BCA0
:10067000704749B1CCF1200421FA04F411FA0CF1CD
:1006800018BF012121430843A3EB0C01CB1D4FEA06
:1006900000614FEA102042BF002010BC704700EB01
:1006A000C35010440029A4BF10BC7047401C49002F
:1006B00008BF20F0010010BC704710B5141E73F184
:1006C000000408DA401C41F1000192185B411A4312
:1006D00001D120F0010010BD2DE9F04D92469B465E
:1006E00011B1B1FA81F202E0B0FA80F22032904604
:1006F000FFF72DFF04460F4640EA0A0041EA0B01CE
:1007000053465A46084313D0114653EA010019D004
:10071000C8F140025046FFF729FF05460E465046F5
:1007200059464246FFF713FF084305D0012004E075
:1007300020463946BDE8F08D0020054346EAE076C4
:100740002C4337430A986305E40AA0EB0800002213
:10075000FD0A44EA47540A3002D500200146E9E781
:10076000010510196941DDE9084500196941BDE835
:10077000F04DA2E72DE9F04D81EA030404F0004BAF
:1007800021F0004514464FF0000A23F0004150EAE2
:10079000050220D054EA01021DD0C5F30A570246D3
:1007A000C5F31303C1F31300C1F30A5640F48015D7
:1007B00043F48013A7EB0608101BD64608F2FD3859
:1007C00073EB050002D308F1010801E092185B41C8
:1007D000B8F1000F03DA00200146BDE8F08D0020DB
:1007E0004FF48011064684460EE0171B73EB050795
:1007F00005D3121B63EB050306434CEA010C4908C1
:100800004FEA300092185B4150EA0107EDD152EAFD
:10081000030012D082EA040083EA0501084305D0F0
:10082000101BAB4106D20122002306E000224FF04C
:10083000004302E06FF0010253101AEB06004CEB8C
:10084000085110EB0A0041EB0B01BDE8F04DFFF73A
:1008500034BFC1F30A52C1F3130140F2FF3341F434
:1008600080119A4202DA00200146704740F2334379
:100870009A42A2F2334202DC5242FFF777BEFFF700
:1008800066BE000030B5041E71F1000404DB4FF0B9
:100890000044404264EB0101141E73F1000405DBC7
:1008A0001C464FF00043524263EB0403994208BFD9
:1008B000904230BD064C074D06E0E06840F0010371
:1008C00094E8070098471034AC42F6D3FFF760FC79
:1008D0000056000820560008C0B24FF4F05100F056
:1008E000EFB900002DE9FF4F087883B09946FF2843
:1008F00005D0491C2D2804D00024002008E0002049
:100900000BE00124F9E700EB800003EB4000491CF9
:100910000B78FF2BF7D104B14042002302931478E7
:1009200019461D462D2C01D02B2C04D1521C2D2CE8
:1009300013D000240294AA461478FF2C0FD00A2565
:10094000A3FB057801FB05814FF0000C03FB0C11A4
:10095000521CE3194AEB0101EEE70124EAE7814466
:1009600053EA010002D019F5C87F06DA0398002186
:10097000C0E9001107B0BDE8F08F0025AE4E2F464C
:10098000DFF8B882184600F0AFF9CDE90001B9F1FF
:10099000000002DAC9F1000400E004460023A74A7F
:1009A0001AEB030B42EB045A12E0E00707D02A4689
:1009B000334638464146FFF7F4FC074688462A4648
:1009C000334610461946FFF7ECFC05460E46641008
:1009D000002CEAD1DDE90001B9F1000F5A46534677
:1009E00006DAFFF7C7FE3A464346FFF7C3FE05E0C7
:1009F000FFF7D7FC3A464346FFF7D3FC029A0AB109
:100A000081F00041039AC2E90001B3E72DE9FF4FED
:100A10001F468DB0D7E901464FF0FF382E204546DE
:100A20004FF000090B90B9696D1C0E988847396A20
:100A3000824688470028F6D1BAF1FF3F0AD024F455
:100A4000D064002E11DDBAF12B0F08D0BAF12D0FB2
:100A50000BD102E0404611B08DE744F48064B969DF
:100A60006D1C0E9888478246761E6946600501D542
:100A70002D2000E02B208DF8000001F1010B0DF17D
:100A8000200809E0B9696D1C0E98884782460F98C6
:100A900044F40074761E0560002E02DDBAF1300FBA
:100AA000F0D00B998A453ED144F0800406E00F99BE
:100AB000681CA9F1010944F400740860B9696D1C4F
:100AC000761E0E98884782463028F0D02BE00B998E
:100AD0008A4505D1200603D444F08004761E18E030
:100AE000504603F087FB08B30DF11301761E44F462
:100AF00000748B4508D2AAF130000BF8010B2006D8
:100B000007D5A9F1010003E0200602D409F1010094
:100B10008146A00502D50F99681C0860B9696D1C53
:100B20000E9888478246002ED1DC53E0002E51DD1E
:100B3000BAF1650F02D0BAF1450F4BD1A00549D5E6
:100B4000B9696D1C24F44074761E0E98884782465D
:100B5000002E0CDD2B2804D0BAF12D0F07D144F460
:100B60008074B9696D1C0E9888478246761EE00530
:100B700001D52D2100E02B2108F8011BCDF82C8098
:100B800021E00DF12901761E44F4007488450CD251
:100B9000AAF1300010F0FF0088F8000002D10B9994
:100BA000884509D908F1010806E0E00501D5244887
:100BB00001E042F20F708146B9696D1C0E988847BA
:100BC00082460F980560002E04DD504603F012FBAC
:100BD0000028D6D1F9690E988847FF208BF80000CD
:100BE00088F800000020069007904B466A4608A946
:100BF00006A8FFF777FEA00502D46FF001002AE7F0
:100C000014F0240F0AD0E00714D1DDE90612386889
:100C1000031D3B600068C0E900120BE0DDE906013E
:100C2000FFF763FC0146E00704D13868021D3A6013
:100C30000068016028460EE7000014400000F03F05
:100C4000F1D8FFFF426842B1016811F8013B23B1BE
:100C5000521EC0E90012184670470121C160881E6B
:100C6000704742685AB1C368016843B983688B42D0
:100C700005D0491E521CC0E90012002070474FF0F9
:100C8000FF3070470EB5C10F80EAE0700844CA0714
:100C9000002140F233438DE80E000A460B46FFF771
:100CA0001BFD03B000BD0EB540F23341029100219F
:100CB000CDE900110A460B46FFF70EFD03B000BD5B
:100CC0007F2801D9002208E0064A02EB5002C00743
:100CD000127800D1120902F00F0201209040084062
:100CE00070470000C05500080EB540F23342029232
:100CF0000022CDE900221346FFF7EEFC03B000BD51
:100D000030B58C1810F8012B12F00F0301D110F838
:100D1000013B120906D110F8012B03E010F8015B2A
:100D200001F8015B5B1EF9D101E001F8013B521EA5
:100D3000FBD1A142E6D3002030BDFEE77047012081
:100D400000F0C4B810B54FF4806000F0BFF84FF465
:100D5000805000F0BBF8BDE810404FF4804000F038
:100D6000B5B82DE9F0410446876D00F0BDF906469F
:100D700094F835000025022806D08020606584F8AC
:100D800034500120BDE8F0812068016821F016018F
:100D900001602068416921F080014161206C08B93F
:100DA000A06C20B12068016821F008010160206872
:100DB000016821F0010101600CE000F095F9801B51
:100DC000052807D920206065032084F8350084F8C1
:100DD0003450D7E720680068C007EED194F85C1063
:100DE0003F208840B860012084F8350084F83450F2
:100DF0000020C7E790F83510022903D08021416513
:100E000001207047052180F835100068016821F045
:100E1000010101600020704770B5044600F064F9DC
:100E20000546601C02D004480078044400F05CF9D8
:100E3000401BA042FAD370BD3801002010B51F4AF4
:100E40001F4C012812D0B0F5804F1BD0B0F5805F49
:100E500025D0B0F5806F08D151151A4800F03AF945
:100E60000028A06928D0401EA06110BD02211046B4
:100E700000F030F90028E06802D0401EE06010BDAC
:100E8000401CFBE74FF40041104600F023F9002816
:100E9000206902D0401E206110BD401CFBE74FF4CA
:100EA0000051094800F016F90028606902D0401E80
:100EB000606110BD401CFBE7401CD5E700100240FC
:100EC0000000002000180240000C0240044910B548
:100ED0000A68024202D00860FFF7B0FF10BD0000B0
:100EE000143C01402DE9F84FDFF8BCA10022012598
:100EF0000AF1040B03264FF00F090BF1040E00BF9B
:100F00000B6805FA02F42340A34270D10F7907F071
:100F10000307012F01D0022F16D187684FEA42083C
:100F200006FA08FC27EA0C07D1F80CC00CFA08FCFA
:100F30004CEA070CC0F808C04768A7430C79C4F313
:100F4000001494403C4344600C79E443A4070AD065
:100F5000C4684FEA420C06FA0CF7BC438F6807FAE4
:100F60000CF72743C7600C7904F00304022C12D15C
:100F7000D40800EB840CDCF820405707FF0E09FA78
:100F800007F824EA0804D1F8108008FA07F848EABC
:100F90000408CCF8208004684FEA420C06FA0CF7EB
:100FA000BC430F7907F0030707FA0CF727430760E4
:100FB0004C6814F4403F70D03C4C276847F480479D
:100FC0002760246822F0030704F480440094384C1E
:100FD00007EB040CDCF8084897074FEA177809FA82
:100FE00008F7BC43334FB84202D1002724E054E055
:100FF000314FB84201D101271EE0304FB84201D134
:10100000022719E02E4FB84201D1032714E02D4FDB
:10101000B84201D104270FE02B4FB84201D1052778
:101020000AE02A4FB84201D1062705E0284FB8420E
:1010300001D1072700E0082707FA08F72743CCF873
:101040000878DAF800405746D1F804C09C435FEABC
:10105000CC3C00D51C433C60DBF800405F46D1F837
:1010600004C09C435FEA8C3C00D51C433C60DEF826
:1010700000407746D1F804C09C435FEACC2C00D5F1
:101080001C433C60084F0C373C68D1F804C09C43BB
:101090005FEA8C2C00D51C433C60521C102AFFF4E4
:1010A0002FAFBDE8F88F0000003C014044380240FB
:1010B00000300140000002400004024000080240ED
:1010C000000C0240001002400014024000180240D0
:1010D000001C02400069084000D0012070470AB19E
:1010E000816170470904FBE7014880687047000090
:1010F00038010020024881680278114481607047FD
:10110000380100200B4810B5016841F400710160FE
:10111000016841F480610160016841F480710160FF
:10112000032000F06FF8002000F006F800F024F82B
:10113000002010BD003C024070B50D4D04464FF438
:101140007A712878B1FBF0F00A490968B1FBF0F038
:1011500000F00CFB48B9102C07D200222146501E8B
:1011600000F030F800206C6070BD012070BD000000
:1011700038010020440100200A4808B5016841F404
:1011800080410160006800F4804000900548001F25
:10119000016841F080510160006800F080500090CB
:1011A00008BD000044380240002809DB00F01F029F
:1011B000012191404009800000F1E020C0F80011B9
:1011C00070470000F0B40E4B1B680C46C3F30223BB
:1011D000C3F10705042D00D90425191D072901D2E3
:1011E000002300E0DB1E012606FA05F1491E21401E
:1011F00099409E40761E16403143F0BC02F014BA6E
:101200000CED00E0064900F0070208684FF6FF0306
:10121000184040EA0220034A10430860704700006B
:101220000CED00E00000FA052DE9F0470E46050040
:1012300065D0DFF81481D8F80000F7B200F007009D
:10124000B04207D288F80070D8F8000000F007001C
:10125000B04254D128683D4C810712D5400703D5D0
:10126000206840F4E05020602878000703D520680B
:1012700040F4604020602068A96820F0F000084336
:1012800020602878C0072DD03049686808390128C7
:1012900012D0022813D0032811D009688907002929
:1012A0002DDA216821F0030101432160FFF71CFFC3
:1012B000814641F2883A0EE009688903EFE7096840
:1012C0008901ECE7FFF710FFA0EB0901514502D9B6
:1012D0000320BDE8F0872068696800F00C00B0EBDF
:1012E000810FEFD1D8F80010404601F00701B1425C
:1012F00007D90770006800F00700B04201D0012054
:10130000E7E72878400705D52068E96820F4E05031
:10131000084320602878000706D52068296920F452
:10132000604040EAC100206000F038F82168084AB7
:10133000C1F30311515CC8400649086006480068C3
:10134000FFF7FAFE0020C4E7003C024008380240E4
:1013500088540008440100203C010020044805494D
:1013600000680968044AC1F38221515CC840704793
:1013700044010020083802409854000804480549F8
:1013800000680968044AC1F34231515CC8407047A3
:10139000440100200838024098540008154810B550
:1013A000006810F00C02144813D01449042A0FD01E
:1013B000082A0ED10F4C241F2268236802F03F0236
:1013C0005B0207D52068C0F38810A0FB010106E08E
:1013D000084610BD2168C1F38811A1FB000100235C
:1013E000FEF7EEFE2168C1F30141491C4900B0FB44
:1013F000F1F010BD083802400024F40040787D016F
:101400002DE9F84F04006ED02078DFF84C93C00728
:10141000A9F104054AD009F104000168C1F3810172
:10142000012908D00068C0F3810002280AD1D9F848
:101430000000400206D52868800337D56068002880
:10144000E1D033E06068B0F5803F10D0B0F5A02F58
:10145000286810D020F480302860286820F480208C
:1014600028606068A8B1FFF73FFE06460DE02868D7
:1014700040F48030F4E740F480202860F7E700BFB4
:10148000FFF732FE801B642873D828688003F7D5E5
:101490000CE0FFF729FE064605E000BFFFF724FE3B
:1014A000801B6428F0D828688003F7D42078DFF800
:1014B000AC8280074FF0000A3ED5A748001D0168A6
:1014C00011F00C0F08D00068C0F3810002280BD186
:1014D000D9F80000400207D42868800716D5E068D4
:1014E000012800D112E033E1E068B8B10120C8F86A
:1014F0000000FFF7F9FD064605E000BFFFF7F4FD29
:10150000801B0228C0D828688007F7D52868216981
:1015100020F0F80040EAC10028600DE0C8F800A003
:10152000FFF7E2FD064604E0FFF7DEFD801B022820
:101530001FD828688007F7D42078000722D5864F67
:1015400087486169703771B101210160FFF7CCFDF7
:10155000064604E0FFF7C8FD801B022809D838685A
:101560008007F7D50EE0C0F800A0FFF7BDFD0646E6
:1015700005E082E0FFF7B8FD801B02287DD83868BF
:101580008007F7D42078400768D5DFF8CCB1002772
:101590000BF13C0BDBF80000C0000BD4DBF80010B3
:1015A00041F08051CBF80010DBF80000012700F07B
:1015B000805000906B4E3068C00510D4306840F405
:1015C00080703060FFF790FD009005E0FFF78CFD24
:1015D0000099401A022850D83068C005F6D55E4EF2
:1015E000A0686C3601280FD00528306810D020F094
:1015F00001003060306820F004003060A068B8B1AD
:10160000FFF772FD00900FE0306840F00100F4E752
:1016100040F004003060F7E7FFF766FD0099411ADB
:1016200041F28830814266D830688007F4D50EE0F8
:10163000FFF75AFD009007E0FFF756FD0099411AA9
:1016400041F28830814256D830688007F4D42FB1F7
:10165000DBF8001021F08051CBF80010A069C8B36E
:101660003D49091D0968C1F3810102294AD00228B8
:10167000504607D0C8F8600000E03CE0FFF734FDBA
:1016800004463BE04746C8F86000FFF72DFD0646DC
:1016900005E000BFFFF728FD801B02282BD8286833
:1016A0008001F7D4D4E907010843A16A2E4A49080A
:1016B00002EB0141626A41EA8211084394F82C105E
:1016C00040EA0161C9F8001001203866FFF70CFDFF
:1016D000044606E03EE000BFFFF706FD001B0228BF
:1016E00009D828688001F7D534E000BFFFF7FCFC7B
:1016F000001B022802D90320BDE8F88F286880016A
:10170000F4D427E00128F7D0D9F80000E26900F40A
:10171000800191421CD1226A00F03F01914217D111
:1017200047F6C071626A0140B1EB821F10D1A26A14
:101730004FF0FF3300F4403103EB5202B1EB024FA4
:1017400006D194F82C1000F07060B0EB016F01D05E
:101750000120D1E70020CFE70438024000004742D3
:10176000800E4742007000400000FFFF10B5401E91
:10177000B0F1807F01D3012010BD4FF0E024606103
:101780000F21601701F050FF0020A06107202061A9
:10179000002010BD7047704770B590F83C20012ABA
:1017A00032D0012480F83C40022280F83D200368BA
:1017B0005A689D6822F070060A6832435A60134BDB
:1017C00002689A4214D0B2F1804F11D0104B9A4265
:1017D0000ED0104B9A420BD00F4B9A4208D00F4BB1
:1017E0009A4205D00E4B9A4202D00E4B9A4204D137
:1017F000496825F080031943916080F83D4000213D
:1018000080F83C10084670BD022070BD0000014009
:101810000004004000080040000C004000040140AB
:10182000004001400018004010B5040003D094F8B7
:101830003D0010B107E0012010BD002084F83C00FD
:10184000204600F01FF8022084F83D00211D20688A
:1018500001F0E0FB012084F8460084F83E0084F8A3
:101860003F0084F8400084F8410084F8420084F886
:10187000430084F8440084F8450084F83D000020CB
:1018800010BD000008B501682248B1F1804F0AD0B0
:10189000214A914219D1016841F0020101600068BA
:1018A00000F002001BE0016841F0010101600068E6
:1018B000002200F00100009001211C20FFF782FCB3
:1018C000BDE808401C20FFF76FBC144A914208D1C4
:1018D000016841F008010160006800F00800009014
:1018E00008BD0F4A914209D10A48001D016841F420
:1018F00080310160006800F48030F0E7094A9142CD
:10190000EED1016841F040010160006800F0400044
:10191000E5E700004038024000040040000C0040B1
:10192000004001400018004090F83D10012901D00E
:1019300001207047022180F83D100168CA6842F01A
:101940000102CA6000681149884214D0B0F1804F8A
:1019500011D00F4988420ED00E4988420BD00E4953
:10196000884208D00D49884205D00D49884202D0EE
:101970000C49884204D1816801F00701062903D08F
:10198000016841F001010160002070470000014042
:101990000004004000080040000C0040000401402A
:1019A000004001400018004070B5044690F83C002B
:1019B0000025012817D0012684F83C60022084F815
:1019C0003D002068826822F0770222F47F42826024
:1019D0000868502838D00DDC20284FD005DC90B3A3
:1019E000102811D14AE0022070BD302846D040288E
:1019F0000AD13BE060282FD070280DD0B0F5805F71
:101A000003D0B0F5005F12D0012584F83D600020BE
:101A100084F83C00284670BDCB68D1E901212068DC
:101A200001F069FB2068816841F0770109E0CB682B
:101A3000D1E90121206801F05EFB2068816841F452
:101A400080418160E1E719E0CA684968206801F0D7
:101A500027FC5021206806E0CA684968206801F028
:101A600030FC6021206801F050FBCEE7CA6849686D
:101A7000206801F015FC40212068F4E72268014647
:101A80001046F0E7704770B50446006801694FF0F2
:101A90000005C943890715D4C168C943890711D412
:101AA000E91E0161012020772068806980072046B7
:101AB00002D0FFF7E7FF04E000F006F9204600F04F
:101AC00098F9257720680169C943490717D4C16887
:101AD000C943490713D46FF0040101610220207744
:101AE0002068806910F4407F204602D0FFF7CAFFCB
:101AF00004E000F0E9F8204600F07BF92577206843
:101B00000169C943090716D4C168C943090712D43A
:101B10006FF008010161042020772068C069800708
:101B2000204602D0FFF7AEFF04E000F0CDF82046DB
:101B300000F05FF9257720680169C943C90617D409
:101B4000C168C943C90613D46FF0100101610820B0
:101B500020772068C06910F4407F204602D0FFF74C
:101B600091FF04E000F0B0F8204600F042F925773C
:101B700020680169C943C90708D1C168C943C907B9
:101B800004D1891E0161204600F098F9206801699E
:101B9000C943090609D4C168C943090605D46FF0D1
:101BA000800101612046FFF7F5FD20680169C94306
:101BB000490609D4C168C943490605D46FF04001FC
:101BC0000161204600F0EAF920680169C9438906ED
:101BD0000BD4C168C943890607D46FF020010161A5
:101BE0002046BDE87040FFF7D6BD70BD30B587B068
:101BF000044614216846FEF71BFB24682A4D002288
:101C00002A4902232A48AC420DD10C6844F0020450
:101C10000C60096801F00201059130210091CDE9C5
:101C20000132694610E0234DAC4213D1086840F000
:101C3000010008600868694600F0010005900C206A
:101C40000090CDE901321C48CDE90323FFF74AF9A2
:101C500007B030BD194DAC4211D1086840F01000FA
:101C600008600868694600F0100005906020009048
:101C7000CDE901320320CDE903201148E6E7114DFB
:101C8000AC42E5D10C6844F002040C60096801F034
:101C900002010591E9000091CDE901320921CDE968
:101CA00003216946D2E700000004004030380240BA
:101CB00000040240000C00400000024000400140CF
:101CC0000010024000180040704770B5044690F8BC
:101CD0003C0000260D4601280FD0012084F83C006E
:101CE0006AB1042A1DD0082A2FD00C2A3FD0012621
:101CF000002084F83C00304670BD022070BD206892
:101D000001F00CFA2068816941F0080181612068C6
:101D1000816921F004018161206881692A69114388
:101D200011E0206801F02AFA2068816941F400611D
:101D300081612068816921F4806181612068816905
:101D40002A6941EA02218161D2E7206801F04CFA58
:101D50002068C16941F00801C1612068C16921F0B2
:101D60000401C1612068C1692A69114311E020683A
:101D700001F06EFA2068C16941F40061C161206818
:101D8000C16921F48061C1612068C1692A6941EAA1
:101D90000221C161ACE710B5040003D094F83D0006
:101DA00010B107E0012010BD002084F83C0020465F
:101DB00000F01EF8022084F83D00211D206801F08B
:101DC00029F9012084F8460084F83E0084F83F0099
:101DD00084F8400084F8410084F8420084F843000D
:101DE00084F8440084F8450084F83D00002010BDCC
:101DF0007047704710B50446022249B104290ED03D
:101E0000082913D094F84100012816D0012010BDF4
:101E100094F83E000128F9D184F83E200FE094F8B0
:101E20003F000128F2D184F83F2008E094F84000F8
:101E30000128EBD184F8402001E084F84120012200
:101E4000206801F04BF916492068164A884201D0F3
:101E5000904203D1436C43F40043436420688842BA
:101E600013D0B0F1804F10D00F4988420DD00F49E8
:101E700088420AD00E49884207D0904205D00D49C9
:101E8000884202D00C49884204D1816801F00701E0
:101E9000062903D0016841F001010160002010BD56
:101EA0000000014000040140000400400008004020
:101EB000000C0040004001400018004010B53449BB
:101EC00000680968884261D102F0B4FF314C04F126
:101ED000200090EC030A02F031FD94ED0F0A00F0AF
:101EE000B9FD94ED100A00F059FE94ED110A00F0CE
:101EF000F9FE94ED120A00F099FF04F180002449E4
:101F000090ED120AD831BCEEC00A0B6810EE102A10
:101F10005A6390ED130A0968BCEEC00A10EE102A4D
:101F20008A6390ED140A1A49BCEEC00A90310B681E
:101F300010EE102ADA6390ED150A0968BCEEC00AAB
:101F400010EE102A0A6490ED160A1349BCEEC00A7E
:101F50000B6810EE102A5A6390ED170A0968BCEE60
:101F6000C00A10EE102A8A6390ED180A0849BCEEE8
:101F7000C00A48310B6810EE102A5A6390ED190A16
:101F80000968BCEEC00A10EE100A886310BD00009C
:101F90004C010020000000206C02002070477047B8
:101FA00070470000F8B5016804460868CA684B69C4
:101FB00010F00F0F4FF0000559D003F0010602F4A6
:101FC0009077374365D0C10705D0D10503D5216C83
:101FD00041F001012164410705D5D90703D0216CE7
:101FE00041F002012164810705D5D90703D0216C96
:101FF00041F004012164010707D502F020013143BB
:1020000003D0216C41F008012164216C00293AD0F1
:10201000800604D5900602D5204601F093F9206889
:102020004069216CC0F38010090700D460B32046DA
:1020300001F061F920684069400621D5206814301C
:1020400050E8001F21F0400140E80012002AF5D1BD
:10205000A06BA8B16C490165A06BFEF7CBFE002810
:1020600011D0A06B016D01B0BDE8F04008478306B8
:102070000FD593060DD52046BDE8F84001F062B9B2
:102080002046FFF78DFFF8BD2046FFF789FF256446
:10209000F8BD266B2023012E79D1C60677D5D6064A
:1020A00075D50868486800904869400640D5A16B1E
:1020B000086840680004000CEAD0A28D8242E7D98B
:1020C000E085C869B0F5807F2DD020680C3050E8DD
:1020D000001F21F4807140E80012002AF5D1206829
:1020E000143050E8001F21F0010140E80012002ADE
:1020F000F5D12068143050E8001F21F0400140E87D
:102100000012002AF5D184F83E30256320680C3097
:1021100050E8001F21F0100140E80012002AF5D11C
:10212000A06BFEF71EFEA08DE18D401A81B229E062
:10213000A08DE18D401A81B2E08D0028A8D0002941
:10214000A6D020680C3050E8002F22F4907240E8AE
:102150000026002EF5D12068143050E8002F22F020
:10216000010240E80026002EF5D184F83E302563B8
:1021700020680C3050E8002F22F0100240E80023C5
:10218000002BF5D12046FFF70AFFF8BDFFE7050653
:102190002BD5150629D594F83D002128F5D1A06846
:1021A000B0F5805F01D12069B0B1206A411C216285
:1021B000216800784860E08C401E0004000CE08438
:1021C000E3D12068C16821F08001C1602068C16846
:1021D00041F04001C160D8E7206A0088C0F30800E0
:1021E0004860206A801C2062E5E74006CDD5500695
:1021F000CBD5CA68204622F04002CA6084F83D3040
:1022000000F061F9C1E70000E732000870B5040092
:1022100004D094F83D00002510B106E0012070BD07
:1022200084F83C50204600F023F8242084F83D0038
:102230002068C16821F40051C160204601F0E2F835
:102240002068016921F4904101612068416921F011
:102250002A0141612068C16841F40051C1602564D0
:10226000202084F83D0084F83E00002070BD00006E
:1022700010B586B0044614216846FDF7D9FF184909
:102280002068884229D117480021026842F4802240
:102290000260006800F4802005901248103802683F
:1022A00042F002020260006800F0020005904FF464
:1022B000406000900220CDE9010103200390072037
:1022C000049069460848FEF70DFE002211462720BB
:1022D000FEF778FF2720FEF767FF06B010BD00006D
:1022E00000480040403802400004024090F83E3070
:1022F000202B0ED159B152B190F83C30012B08D0AF
:10230000012380F83C300023036301F001B9012070
:10231000704702207047000070B53C4900680968AA
:10232000884271D13A4C394A44326168002521B95A
:1023300000201554401C1928FBDD20785054491CFE
:102340006160702809D13148443001F07DF951ECC9
:10235000100BFEF7CAF86560E0672D4E20788036D6
:10236000692809D12948443001F06EF951EC100B6D
:10237000FEF7BBF8306065602078642809D12348F7
:10238000443001F061F951EC100BFEF7AEF87060CB
:1023900065602078782809D11C48443001F054F950
:1023A00051EC100BFEF7A1F86560206220787928C7
:1023B00009D11648443001F047F951EC100BFEF7F3
:1023C00094F8656060622078772809D10F4844301E
:1023D00001F03AF951EC100BFEF787F86560A06246
:1023E0002078652809D10948443001F02DF951ECD5
:1023F000100BFEF748F8C4E90150BDE87040012217
:1024000003490248FFF772BF70BD0000B40200200C
:10241000000000202DE9F843044690F83D001F46D7
:1024200016460D4620284CD1C5B1BEB194F83C00EB
:10243000012846D0012084F83C004FF00008C4F881
:102440004080212084F83D00FEF74EFEA6848146A0
:10245000E684A068B0F5805F03D004E00120BDE809
:10246000F883206928B12E465FF0000584F83C808F
:102470000EE00026FAE78021204601F064F8A0B9BA
:10248000AEB116F8010B21684860E08C401EE08474
:10249000E08C4B464FF0000200970028EBD14FF044
:1024A0004001204601F04FF830B10320D7E735F85E
:1024B000020BC0F30800E6E7202084F83D0000206E
:1024C000CDE70220CBE77047FEE7000010B5124CC5
:1024D000012211462046FEF702FE0022022120467C
:1024E000FEF7FDFD0D4C012204212046FEF7F7FD0D
:1024F000012208212046FEF7F2FD00210848FFF7DF
:1025000079FC04210648FFF775FC054900200A689C
:1025100050630968886310BD001402400010024037
:102520002402002010B5124C012211032046FEF7B0
:10253000D6FD00224FF400512046FEF7D0FD0122C7
:10254000D1022046FEF7CBFD012291022046FEF784
:10255000C6FD08210748FFF74DFC0C210548FFF791
:1025600049FC044900200A68D0630968086410BD6A
:1025700000100240DC01002010B5124C0122910233
:102580002046FEF7ACFD0022E1142046FEF7A7FD31
:10259000012211022046FEF7A2FD0122510220462F
:1025A000FEF79DFD00210848FFF724FC04210648A2
:1025B000FFF720FC044900200A685063096888631B
:1025C00010BD0000000C02406C02002010B5124C3F
:1025D000012291032046FEF782FD00224FF40051B4
:1025E0002046FEF77CFD012208210C48FEF777FD0E
:1025F0000122D1032046FEF772FD00210848FFF7B3
:10260000F9FB04210648FFF7F5FB054900200A689D
:1026100050630968886310BD00180240000402403E
:10262000940100202DE9F04F87B014216846FDF792
:10263000FFFD71480024016841F01001016001684C
:1026400001F010010591016841F02001016001686D
:1026500001F020010591016841F00101016001686C
:1026600001F001010591016841F00201016001687A
:1026700001F002010591016841F008010160016863
:1026800001F008010591016841F040010160006816
:10269000DFF8689100F040000590002242F60C41FE
:1026A0004846FEF71CFD564E012211463046FEF705
:1026B00016FD002202213046FEF711FD012217030C
:1026C00039464846FEF70BFDDFF838A100224FF4EB
:1026D00030615046FEF703FD4FF480680122414609
:1026E0005046FEF7FCFCDFF820B100224FF42041F9
:1026F0005846FEF7F4FC012291035846FEF7EFFC22
:10270000002208214148FEF7EAFC43F60C40009005
:102710000125CDE90154694648460394FEF7E2FBE2
:1027200003200090CDE90154694630460394FEF73A
:10273000D9FB44F201004FF40416CDE900066946C6
:1027400002954846FEF7CEFB48F20200CDE90004B0
:10275000694648460294FEF7C5FB4FF4706000904E
:10276000CDE90154694650460394FEF7BBFB009740
:10277000CDE9016569465046FEF7B4FB6803CDE933
:102780000004694650460294FEF7ACFB6802CDE9AE
:102790000004694658460294FEF7A4FBCDF8008079
:1027A000CDE9016569465846FEF79CFB4FF4604051
:1027B0000090CDE90154694658460394FEF792FB18
:1027C00008200090CDE90154694610480394FEF7B3
:1027D00089FB002202210620FEF7F4FC0620FEF70A
:1027E000E3FC002202212820FEF7ECFC2820FEF763
:1027F000DBFC07B0BDE8F08F30380240001002402B
:1028000000140240000C0240001802400004024084
:1028100010B58CB000240794089409941C216846D4
:102820000A94FDF705FD1648144901601021C0E91E
:10283000011440F2E731C0E903148461FEF7F4FFAC
:102840004FF48050079007A90D48FFF7ADF80C48EA
:10285000FFF7A1FA6020CDE9000402940022694646
:1028600007480494FFF731FA042269460448FFF749
:102870002CFA0348FFF7BAF90CB010BD001800405D
:102880006C02002010B586B0002411480094019419
:102890000294039404944FF08041059401604FF436
:1028A0007A51C0E901146321C0E903148461FEF781
:1028B000BBFF4FF48050009069460548FFF774F85D
:1028C000049404A902480594FEF766FF06B010BD03
:1028D0004C01002010B58EB0002407940894099490
:1028E0000A940B941C2168460C94FDF7A1FC19482E
:1028F000174901601021C0E9011440F2E731C0E935
:1029000003148461FEF790FF4FF48050079007A9ED
:102910001048FFF749F80F48FFF73DFA0B940BA951
:102920000C480C94FEF738FF6020CDE900040294B7
:102930000022694607480494FFF7C7F90422694654
:102940000448FFF7C2F90348FFF750F90EB010BD75
:10295000000400409401002010B58EB000240794BC
:10296000089409940A940B941C2168460C94FDF772
:102970005FFC1948174901601021C0E9011440F2B9
:10298000E731C0E903148461FEF74EFF4FF4805035
:10299000079007A91048FFF707F80F48FFF7FBF962
:1029A0000B940BA90C480C94FEF7F6FE6020CDE9C1
:1029B000000402940822694607480494FFF785F949
:1029C0000C2269460448FFF780F90348FFF70EF927
:1029D0000EB010BD000C0040DC01002010B58CB022
:1029E00000240794089409941C2168460A94FDF772
:1029F0001FFC1648144901601021C0E9011440F27F
:102A0000E731C0E903148461FEF70EFF4FF48050F4
:102A1000079007A90D48FEF7C7FF0C48FFF7BBF961
:102A20006020CDE90004029400226946074804941E
:102A3000FFF74BF9042269460448FFF746F90348BB
:102A4000FFF7D4F80CB010BD004001402402002074
:102A5000FEE7704770B5474C2DED068BF0EE408ACF
:102A600094ED030AB8EEC00A10EE100AFDF72AFD35
:102A70009FED411B53EC112BFDF793FCFDF735FD4A
:102A800000EE100A9FED3E8AF5EEC08A0020F1EEBE
:102A900010FA84ED130A04F18005E06006D185ED9B
:102AA000128A85ED138ABDEC068B70BD78EEC08A64
:102AB000C4ED178A94ED1F0A20EE28AA85ED02AA1C
:102AC00095ED000A20EE280A10EE100AFDF7FAFC38
:102AD0009FED2C1B53EC112BFDF763FC41EC190B04
:102AE000A869FDF7EFFC53EC192BFDF7B3FBFDF7DD
:102AF000FCFC00EE100A254985ED060AD4ED1B0A00
:102B000095ED011A3AEE000A78EEE00A60EE810ACD
:102B1000B2EE041A60EE810AC5ED0A0A30EE200A10
:102B2000D5ED0E0A30EE200A10EE100A85ED0E0AE1
:102B3000884203DD9FED160A85ED0E0A10EE100A9D
:102B40001449884203D99FED140A85ED0E0AB5EEAB
:102B5000C00AF1EE10FA04DB85ED120A85ED138A46
:102B600005E085ED128AB1EE400A85ED130AC4ED49
:102B70001B8A98E700000020179AEB34D2D202405B
:102B8000000000009A9999999999B93F0000AF43C4
:102B90000000AF430000AFC30000AFC370B5474CA7
:102BA0002DED068BF0EE408A94ED040AB8EEC00AD3
:102BB00010EE100AFDF786FC9FED411B53EC112B24
:102BC000FDF7EFFBFDF791FC00EE100A9FED3E8A4A
:102BD000F5EEC08A0020F1EE10FA84ED140A04F13B
:102BE0008005206106D185ED148A85ED158ABDEC3E
:102BF000068B70BD78EEC08AC4ED188A94ED1F0A6A
:102C000020EE28AA85ED03AA95ED000A20EE280AF9
:102C100010EE100AFDF756FC9FED2C1B53EC112B08
:102C2000FDF7BFFB41EC190BE869FDF74BFC53ECDA
:102C3000192BFDF70FFBFDF758FC00EE100A254994
:102C400085ED070AD4ED1C0A95ED011A3AEE000A4B
:102C500078EEE00A60EE810AB2EE041A60EE810AB4
:102C6000C5ED0B0A30EE200AD5ED0F0A30EE200A32
:102C700010EE100A85ED0F0A884203DD9FED160A5B
:102C800085ED0F0A10EE100A1449884203D99FED12
:102C9000140A85ED0F0AB5EEC00AF1EE10FA04DB56
:102CA00085ED140A85ED158A05E085ED148AB1EEEF
:102CB000400A85ED150AC4ED1C8A98E70000002043
:102CC000179AEB34D2D20240000000009A999999E9
:102CD0009999B93F0000AF430000AF430000AFC374
:102CE0000000AFC370B5474C2DED068BF0EE408A67
:102CF00094ED050AB8EEC00A10EE100AFDF7E2FBEB
:102D00009FED411B53EC112BFDF74BFBFDF7EDFB4A
:102D100000EE100A9FED3E8AF5EEC08A0020F1EE2B
:102D200010FA84ED150A04F18005606106D185ED85
:102D3000168A85ED178ABDEC068B70BD78EEC08AC9
:102D4000C4ED198A94ED1F0A20EE28AA85ED04AA85
:102D500095ED000A20EE280A10EE100AFDF7B2FBEE
:102D60009FED2C1B53EC112BFDF71BFB41EC190BBA
:102D7000286AFDF7A7FB53EC192BFDF76BFAFDF75B
:102D8000B4FB00EE100A254985ED080AD4ED1D0AB2
:102D900095ED011A3AEE000A78EEE00A60EE810A3B
:102DA000B2EE041A60EE810AC5ED0C0A30EE200A7C
:102DB000D5ED100A30EE200A10EE100A85ED100A4B
:102DC000884203DD9FED160A85ED100A10EE100A09
:102DD0001449884203D99FED140A85ED100AB5EE17
:102DE000C00AF1EE10FA04DB85ED160A85ED178AAC
:102DF00005E085ED168AB1EE400A85ED170AC4EDAF
:102E00001D8A98E700000020179AEB34D2D20240C6
:102E1000000000009A9999999999B93F0000AF4331
:102E20000000AF430000AFC30000AFC370B5474C14
:102E30002DED068BF0EE408A94ED060AB8EEC00A3E
:102E400010EE100AFDF73EFB9FED411B53EC112BDA
:102E5000FDF7A7FAFDF749FB00EE100A9FED3E8A49
:102E6000F5EEC08A0020F1EE10FA84ED160A04F1A6
:102E70008005A06106D185ED188A85ED198ABDEC23
:102E8000068B70BD78EEC08AC4ED1A8A94ED1F0AD5
:102E900020EE28AA85ED05AA95ED000A20EE280A65
:102EA00010EE100AFDF70EFB9FED2C1B53EC112BBF
:102EB000FDF777FA41EC190B686AFDF703FB53EC59
:102EC000192BFDF7C7F9FDF710FB00EE100A254995
:102ED00085ED090AD4ED1E0A95ED011A3AEE000AB5
:102EE00078EEE00A60EE810AB2EE041A60EE810A22
:102EF000C5ED0D0A30EE200AD5ED110A30EE200A9C
:102F000010EE100A85ED110A884203DD9FED160AC6
:102F100085ED110A10EE100A1449884203D99FED7D
:102F2000140A85ED110AB5EEC00AF1EE10FA04DBC1
:102F300085ED180A85ED198A05E085ED188AB1EE50
:102F4000400A85ED190AC4ED1E8A98E700000020AA
:102F5000179AEB34D2D20240000000009A99999956
:102F60009999B93F0000AF430000AF430000AFC3E1
:102F70000000AFC370477047FEF7BCB810B592B001
:102F800030216846FDF754F914210CA8FDF750F9DB
:102F900014480024016841F080510160006800F08D
:102FA000805011901048016841F480410160006830
:102FB000069400F4804011900220009001200390BC
:102FC000102004906846FEF71BFA0F20CDE90C0490
:102FD0000E940F9400210CA81094FEF725F912B05E
:102FE00010BD0000403802400070004005480168F4
:102FF00041F47001016003494FF0006080390860BE
:103000007047000088ED00E00148FEF73CBD00007D
:103010004C010020F0B50268254C264D264E274F66
:10302000274B4FF0804CA04209D0604507D0A84202
:1030300005D0B04203D0B84201D0984204D122F06A
:10304000700E4A6842EA0E02A0421BD0604519D0B9
:10305000A84217D0B04215D0B84213D0984211D030
:10306000184DA8420ED0184DA8420BD0174DA842BB
:1030700008D0174DA84205D0164DA84202D0164DD3
:10308000A84203D122F44075CA682A434D6922F050
:1030900080022A4302608A68C2620A688262A04291
:1030A00001D0984201D10969016301214161F0BD5C
:1030B000000001400004004000080040000C0040F7
:1030C000000401400040014000440140004801402C
:1030D00000180040001C00400020004010B501F026
:1030E0001F030121046A99408C430462016A9A40DB
:1030F0001143016210BD10B5846842EA032224F432
:103100007F440A432243826010BD826822F070022D
:103110000A4342F00701816070470000F0B5026A7F
:1031200022F001020262036A42688469124E24F0AE
:1031300073050C682C4323F002058B682B430D4D5F
:10314000A84201D0B04205D123F00807CB683B4329
:1031500023F00403A84201D0B04205D14D6922F406
:10316000407215438A692A43426084614968416319
:103170000362F0BD0000014000040140F0B5026AA6
:1031800022F010020262026A436884690D6824F426
:10319000E64444EA05248D6822F0200242EA051242
:1031A0000F4D104EA84201D0B04206D1CF6822F098
:1031B000800242EA071222F04002A84201D0B04247
:1031C00007D14D6923F4406343EA85038D6943EADF
:1031D000850343608461496881630262F0BD000039
:1031E0000000014000040140F0B5026A22F4807240
:1031F0000262026A4368C46922F4007224F0730513
:103200000C68124E2C438D6842EA05220E4DA842EE
:1032100001D0B04206D1CF6822F4006242EA072210
:1032200022F48062A84201D0B04207D14D6923F454
:10323000405343EA05138D6943EA05134360C461B3
:103240004968C1630262F0BD000001400004014012
:1032500030B5026A22F480520262046A4268C3698D
:103260000D6823F4E64343EA05238D6824F40054F3
:1032700044EA0534084DA84202D0084DA84204D1C2
:103280004D6922F4804242EA85124260C361496876
:103290000164046230BD00000000014000040140F0
:1032A00010B5036A046A24F001040462846924F0FE
:1032B000F00444EA021423F00A020A438461026221
:1032C00010BD10B5036A23F0100303628369046A1A
:1032D00023F4704343EA023224F0A00343EA0111CD
:1032E0008261016210BD10B5806B0021C185C1846F
:1032F000FEF756FE10BD01680C3151E8002F22F494
:10330000907241E80023002BF5D10168143151E897
:10331000002F22F0010241E80023002BF5D1016BC0
:10332000012909D101680C3151E8002F22F0100267
:1033300041E80023002BF5D1202180F83E10002128
:103340000163704708B590F83E10222901D0022091
:1033500008BD82684FF480539A4201D1016921B1BE
:10336000816A9A421BD04AB10AE00268816A5268B7
:10337000C2F308020A80816A891C08E0026972B1FE
:103380000268526802F07F020A70816A491C8162F9
:10339000C18D491E0904090CC18503D019E00268DA
:1033A0005268F1E70168CA6822F02002CA60016829
:1033B000CA6822F48072CA6001684A6922F0010278
:1033C0004A61202180F83E10016B012903D0FEF7ED
:1033D000A3FF002008BD0021016301680C3151E802
:1033E000002F22F0100241E80023002BF5D10168E4
:1033F0000A68D20602D50A6849680091818DFEF7F5
:10340000CEFDE6E770B5044600680169E26821F484
:103410004051114301612169A068E2690843616973
:10342000114308432168CA6849F20C639A43024376
:10343000CA6020684169A26921F440711143416169
:1034400031492068884202D03049884202D1FDF7D4
:1034500095FF01E0FDF782FFE26900231921642551
:103460003226B2F5004F626828D0A0FB0101930F0D
:103470009200FCF7A5FE0146B0FBF5F06FF01802D4
:10348000504301EB800006EB0010B0FBF5F000F0BC
:10349000F002B1FBF5F002EB0012B1FBF5F06FF0BA
:1034A0001803584301EB800006EB0010B0FBF5F069
:1034B00000F00F0021681044886070BDA0FB01017E
:1034C00092185B41FCF77CFE0146B0FBF5F002016F
:1034D000B1FBF5F06FF01803584301EB800006EBE9
:1034E000C000B0FBF5F000F0F80002EB4002B1FBC9
:1034F000F5F0584301EB800006EBC000B0FBF5F09F
:1035000000F00700D6E70000001001400014014061
:1035100081628285C28500210164222280F83E20DA
:1035200080F83C100168CA6842F48072CA60016881
:103530004A6942F001024A610068C16841F0200115
:10354000C160002070472DE9F041984617460E46AD
:103550000446069D27E0681C25D02DB1FDF7C4FD6B
:10356000A0EB0800A8421ED920680C3050E8001FCC
:1035700021F4D07140E80012002AF5D120681430FF
:1035800050E8001F21F0010140E80012002AF5D1A7
:10359000202084F83D0084F83E00002084F83C00A0
:1035A0000320BDE8F0812068006836EA000004D0FE
:1035B0000020B842CFD00020F3E70120F9E7000057
:1035C0000148FEF7EFBC0000B4020020FEE7000057
:1035D0000FB4084B10B504A902AA039800F012FE1C
:1035E000044602A9002001F0A4F9204610BC5DF8B1
:1035F00014FB00003349000803B40198410000980F
:1036000050EAC12018BF04204A0D18BF40F0010045
:1036100040F2FF72B2EB515F08BF40F00200012898
:1036200008BF052002B070470907090E002804DB17
:1036300000F1E02080F80014704700F00F0000F166
:10364000E02080F8141D704730B583B0044600F0C8
:10365000F3FC9FED090B05468DED000B0022214682
:103660006846FCF7C0FF284600F0FCFC9DED000B0F
:1036700003B030BD000000000000000000000000AA
:1036800010B52F499FED2C1B2DED020B84B0059832
:1036900020F000408842D8BF9DED040B2DDD294964
:1036A000884209D1049840B94FF0010000F0DAFCDB
:1036B00000F0A2FC06B010BD05DB9DED040B00F090
:1036C0008FFC06B010BD68469DED040B00F0A0F81D
:1036D00010F0030004BF9DED021B9DED000B0CD00C
:1036E00001280ED09DED021B9DED000B022817D086
:1036F000012000F0DDFB06B010BD00F0A5FA06B019
:1037000010BD9DED021B9DED000B012000F0D0FBD4
:1037100051EC100B81F0004106B041EC100B10BDD4
:1037200000F092FA51EC100B81F0004106B041EC30
:10373000100B10BD000000000000000000000000A1
:10374000FB21E93F0000F07F10B52F499FED2C1BB6
:103750002DED020B84B0059820F000408842DCBFBC
:1037600000209DED040B32DD2849884209D10498E0
:1037700040B94FF0010000F075FC00F03DFC06B0D0
:1037800010BD05DB9DED040B00F02AFC06B010BD5A
:1037900068469DED040B00F03BF810F0030011D0DB
:1037A000012818D09DED021B9DED000B02281AD0B8
:1037B00000F04AFA51EC100B81F0004106B041ECE8
:1037C000100B10BD9DED021B9DED000B012000F0C4
:1037D0006FFB06B010BD9DED021B9DED000B00F0D0
:1037E00033FA06B010BD012000F062FB51EC100B63
:1037F00081F0004106B041EC100B10BD000000004C
:103800000000000000000000FB21E93F0000F07F05
:103810002DE9F14F04462DED020B2DED088B8AB0FA
:103820009FEDE70B80ED020B139EE74826F0004565
:1038300085420ADC9DED120B002084ED000B0AB0DE
:10384000BDEC088B03B0BDE8F08FE0489FEDE0AB26
:103850009FEDE1BBA84247DDE14F9FEDE39B9FED6C
:10386000E48B9DED120B53EC1A2B51EC100B002E38
:103870001CDDFCF790FD41EC100BBD4208D053EC71
:103880001B2B51EC100BFCF786FDC4E900010BE08B
:1038900053EC192B51EC100BFCF77DFD53EC182B5E
:1038A000FCF779FDC4E900010120C8E7FCF7D2FC70
:1038B00041EC100BBD4208D053EC1B2B51EC100B0C
:1038C000FCF7C8FCC4E900010BE053EC192B51ECE8
:1038D000100BFCF7BFFC53EC182BFCF7BBFCC4E946
:1038E00000014FF0FF30AAE7C348A84279DB9DED05
:1038F000120B51EC100B01F03BFA41EC180B9FED51
:10390000C00B53EC102BFCF74CFD9FEDBF1B53EC91
:10391000112BFCF79FFCFCF7B6FD0746FDF7B2F94B
:1039200041EC190B53EC1A2BFCF73BFD53EC182B15
:10393000FCF734FD41EC180B53EC1B2B51EC190B2D
:10394000FCF72FFDDFF8C8A241EC100B4FEA155829
:103950000125FA4453EC102B51EC180BFCF71BFD1E
:10396000032DC4E900013DD0C1F30A5005EB451118
:10397000A8EB00001139814234DA0AEB051BB0EEE6
:1039800048AA9BED000BF0EE68AA53EC102B51EC0B
:10399000190BFCF706FD41EC1B0B51EC1A0B53EC19
:1039A0001B2BFCF7F8FC41EC180B51EC1A0B53ECF9
:1039B000182BFCF7F0FC53EC1B2BFCF7ECFC9BEDFD
:1039C000020B41EC1A0B53EC102B51EC190BFCF7CA
:1039D000E8FC53EC1A2BFCF7DEFC41EC100B6D1CE1
:1039E000B8E70EE0002EA8BF3846BFF628AF94ED2A
:1039F000000B51EC100B81F00041C4E9000178424A
:103A00001DE7C6F3130040F4801EC6F30A50A0F26F
:103A1000F530471100F01F05C5F12000DDF848B072
:103A200008900020069007900520EC467949002D6B
:103A300007EB0002794408BF51F8221009D051F871
:103A4000223001EB8201AB404A68089922FA01F169
:103A50001943A1FB0E26A1FB0B131A449A4234BF53
:103A60000123002303EB06080CEB8003D3E901A636
:103A70000E448E4234BF0121002192448A4411B188
:103A8000924502D903E0924501D2012100E00021D4
:103A9000C3E901A641444CF82010011EA0F1010029
:103AA000C4DC029800F10050850F0298DDE903673D
:103AB0008000DDF81480FDF7E5F841EC1A0B304684
:103AC000FDF7F1F89FED541B53EC112BFCF769FC4B
:103AD00041EC1B0B3846FDF7E6F89FED511B53EC0C
:103AE000112BFCF75EFC41EC180B4046FDF7DBF8B0
:103AF0009FED4D1B53EC112BFCF753FC41EC190BC4
:103B000051EC180B53EC192BFCF7A4FB53EC1B2BBB
:103B1000FCF7A0FB53EC1A2BFCF79CFBCDE908014A
:103B2000002008909DED080B53EC1A2B51EC100B64
:103B3000FCF731FC53EC1B2BFCF72DFC53EC182B42
:103B4000FCF729FC53EC192BFCF728FC9FED381BE4
:103B500053EC112BFCF725FC9FED370B41EC180BB8
:103B600053EC102B9DED080B51EC100BFCF719FCDE
:103B700053EC182BFCF76EFB9FED310B41EC180B4F
:103B800053EC102B9DED080B51EC100BFCF709FCCE
:103B900053EC182BFCF75EFB41EC100B139810F064
:103BA000004F06D06D4251EC100B81F0004141EC0A
:103BB000100B284684ED000B41E6000000000000D9
:103BC0000000000000000000FB21E93F7CD902401A
:103BD00000004054FB21F93F3163621A61B4D03DCB
:103BE000FB21F93F000000000000601A61B4D03DE5
:103BF0007370032E8A19A33BFB213941000000009A
:103C000083C8C96D305FE43F000000000000E03F62
:103C10007A1B0000C81A0000000000000000103EDF
:103C2000000000000000103C000000000000103AFE
:103C3000182D4454FB21F93D3326A611460B113CA7
:103C400000000054FB21F93D10B52DED040B2DEDC6
:103C5000088B82B0B0EE419AF0EE619A0B9820F09A
:103C600000449FED4BABB4F1795F11DA9DED0A0B87
:103C700051EC100BFCF707FC002801BFB0EE4A0A1C
:103C8000F0EE6A0A02B0BDEC088B04BF04B010BDB0
:103C90009DED0A0B53EC102B51EC100BFCF781FB44
:103CA00041EC180B3C480621B0EE480AF0EE680AD9
:103CB000784400F081F853EC182B51EC100BFCF712
:103CC00070FB9DED0A0B41EC1B0B53EC192B51ECD7
:103CD000100BFCF766FB41EC190B53EC1B2B51EC62
:103CE000180BFCF75EFB53EC192BFCF754FB9FED14
:103CF0002C0B41EC190B53EC102B51EC180BFCF76F
:103D000050FB41EC100B2848844210DA53EC192B7D
:103D100051EC100BFCF73FFB53EC1A2BFCF73EFB6E
:103D200041EC100B02B0BDEC088B04B010BD1F4875
:103D3000A042BCBF9FED1E1B8DED001B06DBA4F552
:103D400000100190002000909DED001B51EC100B25
:103D500053EC112BFCF71FFB9DED000B41EC180BF6
:103D600053EC102B51EC1A0BFCF715FB41EC1A0B22
:103D700053EC192B51EC180BFCF70DFB53EC1A2BE1
:103D8000FCF70CFB41EC100BCCE70000000000003E
:103D9000000000000000F03FEC17000000000000F1
:103DA000000000000000E03F3333D33F0000E93F54
:103DB000000000000000D23F70B504462DED028BDC
:103DC0004D1E00EBC500B0EE408AF0EE608A90ED2B
:103DD000000B35F0060017D053EC182B51EC100BEC
:103DE000FCF7DFFA41EC100B6D1E04EBC50090ED03
:103DF000001B51EC100B53EC112BFCF72BFA41EC90
:103E0000100B35F00600E7D1022D36D0042D1CD062
:103E1000062D1CBFBDEC028B70BD53EC182B51EC72
:103E2000100BFCF7BEFA94ED0A1B53EC112BFCF7B8
:103E300011FA53EC182BFCF7B4FA94ED081B53EC71
:103E4000112BFCF707FA41EC100B53EC182B51EC3B
:103E5000100BFCF7A6FA94ED061B53EC112BFCF7A4
:103E6000F9F953EC182BFCF79CFA94ED040B53EC86
:103E7000102BFCF7EFF941EC100B53EC182B51EC25
:103E8000100BFCF78EFA94ED021B53EC112BFCF790
:103E9000E1F953EC182BFCF784FA94ED001B53EC7A
:103EA000112BFCF7D7F9BDEC028B41EC100B70BD68
:103EB00031B504462DED040B2DED0A8BB0EE41BA61
:103EC000F0EE61BA0B989DED0A0B20F00040B0F1C6
:103ED000795F0DDA51EC100BFFF78EFB042808BF59
:103EE00000F09AF89DED0A0BBDEC0A8B05B030BDD1
:103EF00053EC102B51EC100BFCF753FA41EC180B60
:103F00009DED0A0B53EC182B51EC100BFCF749FA02
:103F100041EC190B2C48B0EE480AF0EE680A052176
:103F20007844FFF749FF9FED2ACBB0EE40AAF0EEB0
:103F300060AA9CB353EC1C2B51EC190BFCF731FA23
:103F400041EC1C0B53EC1A2B51EC190BFCF729FA22
:103F50009FED210B41EC190B53EC102B51EC1B0B7B
:103F6000FCF71FFA53EC192BFCF715FA53EC182B3E
:103F7000FCF717FA53EC1B2BFCF70DFA53EC1C2B38
:103F8000FCF709FA9DED0A1B53EC112BFCF706FA1E
:103F9000BDEC0A8B05B041EC100B30BDFFE753ECD4
:103FA0001A2B51EC180BFCF7FCF953EC1C2BFCF70B
:103FB00051F953EC192BFCF7F4F99DED0A1B53EC66
:103FC000112BFCF747F9E3E774160000000000002E
:103FD000495555555555C5BF000000000000E03F4C
:103FE00010B553EC102B51EC100BFCF733F941ECEE
:103FF000100B10BD000000009FED050B10B553EC39
:10400000102B51EC100BFCF7B5FB41EC100B10BD65
:1040100000000000000000009FED050B10B553EC00
:10402000102B51EC100BFCF7BCF941EC100B10BD40
:104030000000000000000010014800687047000008
:104040004801002002E008C8121F08C1002AFAD166
:1040500070477047002001E001C1121F002AFBD108
:1040600070470000014908607047000048010020C7
:104070002DE9FF5F82B00021DDE90430020DDDF89B
:1040800040B0034318D044F61050A2F2FF3242432E
:104090001514119801281FD0A5EB0B00401C5FEAF6
:1040A000000A4FF000064E4FDFF83891B0465046F8
:1040B00015D5CAF1000413E0119801244AA3012880
:1040C00001D16FEA0B010298119AC0E90031C0E9F1
:1040D000024206B0BDE8F09FCBF10000DFE70446E6
:1040E0000021404A491842EB0450CDE9001012E08B
:1040F000E00707D032463B4640464946FCF751F9B7
:104100008046894632463B4610461946FCF749F937
:1041100006460F466410002CEAD1DDE90401DDE912
:104120000023BAF1000F06DAFCF73BF942464B4692
:10413000FCF737F905E0FCF71DFB42464B46FCF760
:1041400019FB04460E460022284BFCF79BFB03D8C4
:104150004FF0FF30014607E00022254B2046314654
:10416000FCF778F8FCF775FB102409E0002C0ADB5B
:104170000A220023FCF724F8039B30321A55641EF0
:1041800050EA0102F2D1641C039AC4F111031444F1
:10419000119A012A03D0012208430DD10AE00843F5
:1041A00004D000204FF0110B119072E7A3EB0B0528
:1041B0006D1E0DE05B4504DD4FF0000205F10105C9
:1041C00004E003DA4FF00002A5F10105002AECD06B
:1041D00002981199C0E90231C0E9004579E7000071
:1041E000000014400000F03F300000000000F043E9
:1041F0000000E03F30380A2801D20120704700203B
:10420000704700002DE9FF4F95B09B468946064652
:1042100000250FE2252877D100242746F84A0121FE
:10422000059400E0044316F8013F203B01FA03F037
:104230001042F7D130782A2811D06FF02F03307850
:10424000A0F13002092A16D8059A44F0020402EBC4
:10425000820203EB42021044761C0590EFE759F806
:10426000042B0592002A03DA504244F400540590CE
:1042700044F00204761C30782E2816D116F8010F6F
:1042800044F004042A280DD06FF02F023078A0F1FA
:104290003003092B09D807EB870302EB4303C71848
:1042A000761CF3E759F8047B761C30786C280FD025
:1042B00006DC4C2817D068280DD06A2814D104E0F9
:1042C000742810D07A280FD10DE044F400140AE0CD
:1042D00044F4801401E044F440147278824202D124
:1042E00004F58014761C761C307866280BD013DC1D
:1042F000582877D009DC002875D04528F6D0462804
:10430000F4D047281AD19DE118E0632835D06428FD
:1043100079D0652812D195E1702873D008DC672820
:10432000F1D069286FD06E280DD06F2806D1B5E086
:1043300073282CD0752875D0782874D05A461799D0
:1043400090476D1C75E1C4F30250022809D0032880
:104350000DD0D9F8001004280DD00D6009F1040922
:1043600067E1D9F80010EA17C1E90052F6E7D9F879
:1043700000100D80F2E70D70F0E719F8041B8DF8BE
:10438000001000208DF80100EA46012003E059F8F2
:1043900004AB4FF0FF3061074FF0000102D40DE095
:1043A00008F101018846B9420FDA8045F8DB1AF8B6
:1043B00008100029F4D108E008F101018846814283
:1043C000FADB1AF808100029F6D105985B46A0EB35
:1043D000080721463846179A00F094FA284400EB63
:1043E000080507E04DE029E10DE01AF8010B5A46F7
:1043F00017999047B8F10108F7D25B462146384635
:10440000179A13E142E00A220092C4F302524FF0DD
:10441000000A022A08D059F804CB032A4FEAEC71AB
:104420000AD00DE029E02AE009F1070121F0070296
:10443000F2E802C1914609E00FFA8CFC4FEAEC71F8
:10444000042A03D14FFA8CFC4FEAEC71002907DAF9
:104450000A460021DCF1000C61EB02012D2202E092
:10446000220504D52B228DF80420012203E0E20767
:1044700001D02022F7E7904659E00A2102E01022FD
:104480000DE010214FF0000A00910BE010224FF0D8
:10449000000A44F004040827009203E008224FF0C9
:1044A000000A0092C4F30252022A05D059F804CB44
:1044B0000021032A08D009E009F1070121F00702D1
:1044C000F2E802C1914605E01FFA8CFC042A01D1F2
:1044D0000CF0FF0C4FF00008220728D5702806D0FA
:1044E000009B83F0100353EA0A0305D00EE040223C
:1044F0008DF80420012208E05CEA010206D0302297
:104500008DF804208DF8050002229046009B83F070
:10451000080353EA0A030AD15CEA010201D16207E7
:1045200005D530228DF804204FF001087F1E582851
:1045300004D034A003900EA802900DE036A0F9E755
:1045400053466046009AFBF73BFE84460398825C24
:104550000298401E029002705CEA0100F0D10298BD
:1045600006A9081A00F1200A600702D524F4803455
:1045700000E00127574502DDA7EB0A0000E000201C
:1045800000EB0A01009005984144401A0590E003B1
:1045900006D45B462146179A059800F0B3F9054406
:1045A000002706E001A85A46C05D179990476D1C88
:1045B0007F1C4745F6DBE0030CD55B462146179A86
:1045C000059800F09FF9054404E030205A461799F9
:1045D00090476D1C0099481E00900029F5DC08E00A
:1045E000029802995A460078491C029117999047FF
:1045F0006D1CBAF10001AAF1010AF1DC65E10000CD
:1046000009280100303132333435363738396162A8
:10461000636465660000000030313233343536376C
:1046200038394142434445460000000000F058F943
:104630000544761C307800287FF4ECAD19B028468C
:10464000BDE8F08F620700D4062709F1070222F0C7
:10465000070CFCE80223E14603F000485FEA080C7F
:1046600002D00FF2702C0DE05FEA045C02D50FF26D
:10467000682C07E05FEAC47C02D00FF2602C01E0F6
:10468000AFF2700C4FF0FF3823F00043CDF850C06C
:1046900065280CD006DC452809D046281DD04728BF
:1046A0003DD13DE0662818D067287ED138E0002152
:1046B000112F01DB112000E0781CCDE9000106A9D3
:1046C0000EA8FFF7D5FCDDE90F010E9A039100213A
:1046D000009207F1010A04914DE04FF0004000976D
:1046E000CDE9011006A90EA8FFF7C2FCDDE90F0213
:1046F00003920E9B11990022DDF80CA00093049206
:1047000011B9791C00EB010AB7EB0A0004D4C0F11F
:10471000FF3007F1010A0490AAEB0700019044E082
:10472000012F00DA01270021112F01DD112000E007
:104730003846CDE9000106A90EA8FFF799FCDDE98E
:104740000F010E9A0391002104910092BA462107AD
:104750000CD40399514500DA8A46BAF1010F05DD00
:10476000009AAAF10101515C302908D0B84202DA5E
:1047700010F1040F06DA0121CDE9011015E0AAF1CC
:104780000101E9E7002805DC049901440491AAEB42
:10479000000102E0411C514500DD8A460499401A9F
:1047A000401C01904FF000400290200704D4019873
:1047B000504501DBCDF8048000208DF84F000298B1
:1047C0000DF14F07B0F1004F25D02B200E9002982D
:1047D0004FF0020800280CDA404202902D200E9083
:1047E00007E00A210298FBF79CFE3031029007F89F
:1047F000011DB8F10001A8F10108F2DC02980028BF
:10480000EFD1791E0E980870307800F0200040F04B
:10481000450007F8020D12A8C01B00F10708149804
:10482000007800B1012000EB0A01019801EBE07172
:1048300005984144401A401E0590E00306D45B46AB
:104840002146179A059800F05DF805441498007801
:1048500018B15A46179990476D1CE00324D55B4662
:104860002146179A059800F04DF805441CE004987D
:10487000002807DBDDE90301884203DD0098405C86
:10488000179901E0179930205A469047049805F18E
:104890000105401C04900198401E019004D12E2077
:1048A0005A46179990476D1CBAF10001AAF1010A06
:1048B000DDDC05E017F8010B5A46179990476D1C8F
:1048C000B8F10001A8F10108F4DC5B462146179A13
:1048D0000598ABE62D0000002B0000002000000032
:1048E0002DE9F041044600251E461746880404D4ED
:1048F00005E039462020B0476D1C641EF9D52846D6
:10490000BDE8F0812DE9F041044600251E469046A1
:10491000C80301D5302700E02027880404D505E02E
:1049200041463846B0476D1C641EF9D52846BDE89F
:10493000F0810A68531C0B601070704710B52DEDA4
:104940000E8BB0EE40AAF0EE608A9FED6F0A21EE6A
:10495000008A18EE100AFBF7B5FD41EC1B0B1AEEAE
:10496000100AFBF7AFFD41EC100B684890ED0C9B73
:1049700051EC100B53EC192BFBF713FD41EC1C0B06
:1049800018EE900AFBF79EFD53EC192BFBF709FD7F
:1049900053EC1C2BFBF7FFFC53EC1B2BFBF75AFCD7
:1049A0009FED5BBB53EC1B2BFBF7FBFCFBF79DFD6B
:1049B000594C0AEE900A18EE100AC4ED0BAAFBF748
:1049C00081FD41EC1E0B18EE900AFBF77BFD53ECCA
:1049D000192BFBF7E6FC41EC1D0B51EC190B81F098
:1049E000004141EC1C0B1AEE100AFBF76BFD53EC77
:1049F0001C2BFBF7D6FC53EC1D2BFBF7CCFC53EC2C
:104A00001E2BFBF727FC53EC1B2BFBF7CAFCFBF719
:104A10006CFD0EEE100A18EE100A84ED0CEAFBF79E
:104A200051FD41EC1D0B18EE900AFBF74BFD53ECCA
:104A3000192BFBF7B6FC41EC1C0B1AEE100AFBF726
:104A400041FD53EC192BFBF7ACFC53EC1C2BFBF793
:104A5000A2FC53EC1D2BFBF7FDFB53EC1B2BFBF7D0
:104A6000A0FCFBF742FD0DEE100A18EE100A84EDD3
:104A70000DDAFBF727FD41EC1C0B18EE900AFBF753
:104A800021FD53EC192BFBF78CFC41EC180B1AEEB3
:104A9000100AFBF717FD53EC192BFBF782FC53ECC4
:104AA000182BFBF7D7FB53EC1C2BFBF7D3FB53EC7A
:104AB0001B2BFBF776FCFBF718FD01EE100A9FEDB0
:104AC000170A84ED0E1A94ED072AF0EE000A6AEE3A
:104AD000801A62EE200A81EEA02A6EEE001A84EDA2
:104AE0000F2A81EEA02A6DEE001A21EE000A80EE58
:104AF000201A84ED102A81EEA02A84ED112A84ED7B
:104B0000121ABDEC0E8B10BD295C8F3E00010020F7
:104B1000000000A0AAAA2A40000000200000704265
:104B20007CB5654C206AFBF7CDFC41EC100B63A112
:104B300053EC102B6548FEF74BFD6448FBF783FBF5
:104B4000624982B20A23A1F15D00FDF763FC642093
:104B5000FCF762F9606AFBF7B5FC41EC100B5CA155
:104B600053EC102B5948FEF733FD5848FBF76BFB0D
:104B7000564982B20A23A1F15D00FDF74BFC642087
:104B8000FCF74AF9A06AFBF79DFC41EC100B54A11D
:104B900053EC102B4D48FEF71BFD4C48FBF753FB25
:104BA0004A4982B20A23A1F15D00FDF733FC64207B
:104BB000FCF732F9E06BFBF785FC05460E46E06A30
:104BC000FBF780FC41EC100BCDE9005653EC102BA9
:104BD00047A13E48FEF7FCFC3C48FBF734FB3B4951
:104BE00082B20A23A1F15D00FDF714FC6420FCF7FA
:104BF00013F9206CFBF766FC05460E46206BFBF7AD
:104C000061FC41EC100BCDE9005653EC102B40A198
:104C10002E48FEF7DDFC2D48FBF715FB2B4982B231
:104C20000A23A1F15D00FDF7F5FB6420FCF7F4F821
:104C3000606CFBF747FC05460E46606BFBF742FCD9
:104C400041EC100BCDE9005653EC102B38A11F4856
:104C5000FEF7BEFC1D48FBF7F6FA1C4982B20A2398
:104C6000A1F15D00FDF7D6FB6420FCF7D5F8A06C40
:104C7000FBF728FC05460E46A06BFBF723FC41EC36
:104C8000100BCDE9005653EC102B31A10F48FEF765
:104C90009FFC0E48FBF7D7FA0C4982B20A23A1F118
:104CA0005D00FDF7B7FB6420FCF7B6F8BDE87C407B
:104CB0004FF4FA60FCF7B0B80000002076785F721D
:104CC0006566203D20252E32660A00001103002073
:104CD00076795F726566203D20252E32660A0000D7
:104CE000775F726566203D20252E32660A0000003F
:104CF00077315F74656D70203D20252E32662C2043
:104D000077315F726566203D20252E32660A0000ED
:104D100077325F74656D70203D20252E32662C2021
:104D200077325F726566203D20252E32660A0000CC
:104D300077335F74656D70203D20252E32662C2000
:104D400077335F726566203D20252E32660A0000AB
:104D500077345F74656D70203D20252E32662C20DF
:104D600077345F726566203D20252E32660A00008A
:104D700082B0CDE9000121F0004001909DED000BD3
:104D800002B051EC100B7047FCF7BCF9FEF7F6F8D7
:104D9000FDF748FCFDF79EFDFDF774FD2248214913
:104DA0000C2201604FF4E131416000218160C1605B
:104DB000C0E904128161C161FDF728FAFDF70EFE1A
:104DC000FDF726FDFDF7C8FD1848FCF7ADFD0122F3
:104DD00017491548FDF78AFAFDF778FBFDF7A2FBA6
:104DE000FDF7CAFBFDF7F2FB114C0120A06006E0C5
:104DF000A06808B9FFF794FEA068012801D100F06F
:104E0000B1FAA068022801D100F01AFAA0680328BC
:104E100001D100F0B5F9A0680428E9D100F074F9D7
:104E2000E6E7000000480040B40200204C010020EA
:104E30000000002070B5A94C2DED0C8B94ED030AF9
:104E4000B8EEC00A10EE100AFBF73CFB9FEDA48BF6
:104E500053EC182BFBF7A5FAFBF747FB09EE900A7A
:104E6000C4ED139A94ED040AB8EEC00A10EE100ACD
:104E7000FBF728FB53EC182BFBF793FAFBF735FBFA
:104E800009EE100A84ED149A94ED050AB8EEC00AF2
:104E900010EE100AFBF716FB53EC182BFBF781FA08
:104EA000FBF723FB0AEE100A84ED15AA94ED060A1F
:104EB000B8EEC00A10EE100AFBF704FB53EC182BF7
:104EC000FBF76FFAFBF711FB01EE100AB0EE000AD8
:104ED00084ED161AD4ED070A04F1800060EE800A12
:104EE0009FED810A60EEA91AC1EE809A60EE891AE0
:104EF00081EE809A60EE8A1A60EE810AC0ED1A9AFD
:104F0000C1EE808A80ED1B9A80EE80AAC0ED1C8ADB
:104F100080ED1DAA9FED758A00F1800429EE88DAE4
:104F200069EE08CA28EE88CA6AEE08AAB1EE4D0AF0
:104F300080ED1EDA30EE6C0AC0ED1FCA84ED00CAA7
:104F4000C4ED01AA30EE0C0A30EE2A0A10EE100A67
:104F5000FBF7B8FA41EC1B0B9FED650B53EC102BE4
:104F600094ED0C0B51EC100BFBF71BFA0E4646ECC4
:104F7000100B054653EC1B2B51EC100BFBF711FAF1
:104F8000FBF7B3FA3DEE6C0AA06030EE4C0A30EE4F
:104F90002A0A10EE100AFBF795FA41EC100B46ECCA
:104FA000115B53EC102B51EC110BFBF7FAF9FBF7EB
:104FB0009CFA39EE890A30EE280A30EE0A0A20EE11
:104FC000080ADFED4D0AE06080EE201A84ED041A35
:104FD000A06AFBF777FA41EC100BFEF7B5FBB0EED9
:104FE000408AF0EE608AE068FBF76CFA53EC182B0D
:104FF000FBF7D7F941EC180BA06AFBF763FA41EC19
:10500000100BFEF73DFBB0EE409AF0EE609AA06800
:10501000FBF758FA53EC192BFBF7C3F953EC182B99
:10502000FBF7B9F99FED359B53EC192BFBF7B9F959
:10503000FBF75BFA6061A06AFBF744FA41EC100BE6
:10504000FEF71EFBB0EE408AF0EE608AE068FBF7E8
:1050500039FA53EC182BFBF7A4F941EC180BA06AB2
:10506000FBF730FA41EC100BFEF76EFBB0EE40AAF6
:10507000F0EE60AAA068FBF725FA53EC1A2BFBF7B9
:1050800090F953EC182BFBF7E5F853EC192BFBF7D1
:1050900088F9FBF72AFA00EE100A9FED1A1A84ED40
:1050A000060AD4ED040A60EE810AC4ED070A94ED05
:1050B000081AD4ED051A31EE211A84ED081A94ED80
:1050C000091A31EE000A84ED090A94ED0A0A30EE5D
:1050D000200A84ED0A0ABDEC0C8B70BD0000002094
:1050E000179AEB34D2D20240000070429A99993D4F
:1050F000000000000000E03F295C8F3F000000A09E
:105100009999B93FCDCCCC3D2DE9FF41DFF85480D2
:10511000D8F81000FBF7D6F906460F46D8F80C0071
:10512000FBF7D0F904460D46D8F80800FBF7CAF99A
:1051300041EC100B8DE8F00053EC102B0AA10F4846
:10514000FEF746FA0D48FBF77EF80C4982B20A23B7
:10515000A1F15D00FDF75EF904B03220BDE8F04139
:10516000FBF75ABE00010020252E32666A20252E4C
:1051700032666B20252E32666C2000001103002061
:1051800010B52748C06FFBF79DF941EC100B25A126
:1051900053EC102B2548FEF71BFA2448FBF753F875
:1051A000224982B20A23A1F15D00FDF733F96420A0
:1051B000FBF732FE1A4C80342068FBF783F941EC90
:1051C000100B1BA153EC102B1848FEF701FA1748DF
:1051D000FBF739F8154982B20A23A1F15D00FDF70A
:1051E00019F96420FBF718FE6068FBF76BF941ECD6
:1051F000100B11A153EC102B0C48FEF7E9F90B48EA
:10520000FBF721F8094982B20A23A1F15D00FDF7FD
:1052100001F9BDE810404FF4FA60FBF7FDBD000056
:105220000000002050252E3266700A001103002075
:1052300049252E3266690A0044252E3266640A002A
:1052400010B5324CE06DFBF73DF941EC100B30A18D
:1052500053EC102B3348FEF7BBF93248FAF7F3FF53
:10526000304982B20A23A1F15D00FDF7D3F8642032
:10527000FBF7D2FD206EFBF725F941EC100B2AA1BC
:1052800053EC102B2748FEF7A3F92648FAF7DBFF6B
:10529000244982B20A23A1F15D00FDF7BBF8642026
:1052A000FBF7BAFD606EFBF70DF941EC100B23A183
:1052B00053EC102B1B48FEF78BF91A48FAF7C3FF83
:1052C000184982B20A23A1F15D00FDF7A3F864201A
:1052D000FBF7A2FDA06EFBF7F5F841EC100B1CA14B
:1052E00053EC102B0F48FEF773F90E48FAF7ABFF9B
:1052F0000C4982B20A23A1F15D00FDF78BF8BDE8ED
:1053000010404FF4FA60FBF787BD0000000000205A
:105310006531203D20252E32662072706D20720A84
:1053200000000000110300206532203D20252E32B0
:10533000662072706D20720A000000006533203D07
:1053400020252E32662072706D20720A0000000047
:105350006534203D20252E32662072706D20720A41
:105360000000000010B5324CE06CFBF7ABF841ECEC
:10537000100B30A153EC102B3348FEF729F93248BB
:10538000FAF761FF304982B20A23A1F15D00FDF70F
:1053900041F86420FBF740FD206DFBF793F841ECEA
:1053A000100B2AA153EC102B2748FEF711F92648C1
:1053B000FAF749FF244982B20A23A1F15D00FDF703
:1053C00029F86420FBF728FD606DFBF77BF841ECC2
:1053D000100B23A153EC102B1B48FEF7F9F81A48C9
:1053E000FAF731FF184982B20A23A1F15D00FDF7F7
:1053F00011F86420FBF710FDA06DFBF763F841EC9A
:10540000100B1CA153EC102B0F48FEF7E1F80E48CF
:10541000FAF719FF0C4982B20A23A1F15D00FCF7EB
:10542000F9FFBDE810404FF4FA60FBF7F5BC00004F
:10543000000000207731203D20252E32662072703A
:105440006D20720A00000000110300207732203D19
:1054500020252E32662072706D20720A0000000036
:105460007733203D20252E32662072706D20720A1F
:10547000000000007734203D20252E326620727017
:105480006D20720A00000000000000000000000013
:1054900001020304060708090000000001020304DA
:1054A0004C5555555555A53F7751C1166CC156BF42
:1054B0009015CB19A001FA3EAD529C804F7E92BE52
:1054C000C4B1B4BD9EEE213ED43888BEE9FAA8BD71
:1054D00000004054FB21F93F3163621A61B4D03DB2
:1054E0000000601A61B4D03D7370032E8A19A33B8B
:1054F0000000002E8A19A33BC14920259A837B39DD
:1055000000000000000000006E83F9A22915444E3F
:10551000D15727FCC0DD34F5999562DB4190433CBF
:10552000AB6351FE61C5BBDE3A6E24B7E0D24D429B
:10553000EA2E49061C92D1091CEB1DFE3EA729B19B
:10554000F53582E88444BB2E26709CE9417E5FB429
:1055500039D69139F43953838B5F849C3B28F9BD4C
:10556000FF97F81F0F9805DE8B112FEF1F6D0A5A5A
:10557000CF7E366DB709CB27663F464F2DEA5F9E3B
:10558000C7BA27757BF1E5EBF739073DEA92528AF6
:10559000B15FFB6B085D8D1FA6F810111111813FE3
:1055A000D561C119A0012ABF7DFEB157E31DC73ED9
:1055B000EB9C2B8AE6E55ABE7CD5CF5A3AD9E53D1D
:1055C000DDDDDDDDDCBBBBDDDDDDDDDDDDDDDDDD50
:1055D0009888888888888888777777777788888890
:1055E0008555555666666666666666666668888828
:1055F0008333333222222222222222222228888D21
:1056000020560008000000204C010000000D00089A
:10561000405600084C0100202C06000054400008B1
:10562000011D0560C3F5484006AD400AD7A33D4AB9
:10563000A4C519C39CA0E63F0192106324F40000A6
:040000050800018965
:00000001FF
